:100000000040002099010000D9010000DB01000040
:1000100000000000000000000000000000000000E0
:10002000000000000000000000000000DD010000F2
:100030000000000000000000DF010000E1010000FE
:10004000E5010000E7010000E9010000EB0100000C
:10005000ED01000000000000EF010000F1010000D0
:10006000F3010000F5010000F7010000F9010000B4
:10007000FB010000FD010000FF0100000102000083
:10008000030200000502000007020000000000005B
:10009000090200000B0200000D0200000F02000028
:1000A0001102000013020000000000000000000028
:1000B0000000000000000000000000000000000040
:1000C00010B5064C2378002B07D1054B002B02D02E
:1000D000044800E000BF0123237010BDD8080020B1
:1000E000000000006882000008B5084B002B03D018
:1000F0000748084900E000BF07480368002B03D009
:10010000064B002B00D0984708BDC04600000000F9
:1001100068820000DC080020D408002000000000F5
:10012000164B002B00D1144B9D46402292029A1A86
:10013000924600218B460F461348144A121A00F0CB
:1001400013FC0F4B002B00D098470E4B002B00D018
:1001500098470020002104000D000D48002802D01F
:100160000C4802F00DF800F0DBFB2000290000F045
:1001700049F900F0C5FBC04600000800004000201F
:100180000000000000000000D80800204C090020FA
:1001900081210000193200000948026803210A4346
:1001A00002600849084A094B9B1A05DD00240859DA
:1001B000105104349C42FADB05488047054800474B
:1001C000240500407482000000000020D4080020B4
:1001D0002502000021010000FEE7FEE7FEE7FEE742
:1001E000FEE7FEE7FEE7FEE7FEE7FEE7FEE7FEE7E7
:1001F000FEE7FEE7FEE7FEE7FEE7FEE7FEE7FEE7D7
:10020000FEE7FEE7FEE7FEE7FEE7FEE7FEE7FEE7C6
:10021000FEE7FEE7014A024B1A6070470024F40033
:10022000040000201C4B10B51A78181C012A12D1AA
:100230001A4B1B6819070ED1194BF0221B68E024DA
:10024000191C1140234204D1164B1B68134202D1E2
:1002500018E03029F8D00378012B1BD10F4A12681F
:10026000110717D10E4A1168F0221140402911D10F
:100270000C49096811420DD1C1228021D200C90563
:100280008B5007E00849094A11608021084A090299
:100290001160E0E710BDC046E00F00F0E40F00F091
:1002A000E80F00F0EC0F00F0DFFF07C0040500408E
:1002B000186C004013B50D4C0222211C012338207C
:1002C00000F0BCFAA11C02220123382000F0B6FA8B
:1002D000211D01220023382000F0B0FA012201A9DB
:1002E000131C392000F0AAFA13BDC04608000020F4
:1002F00010B50749041C053101220023382000F005
:100300009DFA211C06220123392000F097FA10BD26
:100310000800002008B5011C02229320012300F0F0
:100320008DFA08BD08B507498B79834208D00F23A1
:10033000184001228871131C0631902000F07EFACB
:1003400008BDC0460800002008B5011C032291200A
:10035000012300F073FA08BD054AA0238021DB05C4
:10036000490299500321E8228A4099507047C046BB
:100370000C050000A0238022DB055202002801D1D9
:10038000024901E0A121C9005A5070470C05000044
:10039000A223A022DB00D205D058C003C00F7047B3
:1003A0000649A023DB0500225A50EC21C9005A500F
:1003B0008021A1228904D20099507047640700006F
:1003C00030B50949A023A224DB05E4000325185910
:1003D0005D501C5900255D500122230E000E104077
:1003E0001A405200104330BD64070000BFF34F8F26
:1003F000024A034BDA60BFF34F8FFEE70400FA05B1
:1004000000ED00E010B58022A3230021D205DB001F
:10041000D150234B8AB09960012191609A68002ADB
:10042000FCD000F0C3F91F4B40221A6062B6FFF700
:1004300041FF00220092101C1721162300F0B4F88F
:100440000321E023A0228B40D205D150164AA023DD
:10045000DB0599580122114202D1A121C90000E017
:100460001249134C5A50201CFFF742FF2278637840
:1004700012021A43A378E1781B020B4321796079B9
:1004800009020143009102A80A4900F0DBFA02A820
:1004900000F07EF8FA20400000F00EF8D6E7C046E3
:1004A000FC00004000E100E0040500000C05000035
:1004B00040090020407D000082B00190019B002B8C
:1004C00015D0019B013B01930A4BC046C046C04674
:1004D000C046C046C046C046C046C046C046C046EC
:1004E000C046C046C046013B002BEED1E6E702B055
:1004F0007047C046E7030000054BDA68012AFBD1CC
:100500000022DA60034AA323DB00D058C0B2704750
:10051000FC20004000200040031C134AD068012842
:1005200017D0013B581C13D4FA229200C046C04693
:10053000C046C046C046C046C046C046C046C0468B
:10054000C046C046C046C046013A002AEED1E4E7A4
:100550000020002B06DB0023D360A323034ADB002B
:10056000D3580B707047C046FC200040002000406C
:10057000044B054AD050054B1A6A012AFBD10022D0
:100580001A6270471C05000000200040FC2000405B
:1005900010B50378441C002B05D0181CFFF7E8FFAA
:1005A00023780134F7E710BDF7B508AC2478E026CE
:1005B000760001948D19A024E405AD0003272F5186
:1005C0009D19AD0000262E51134D144EA95114490A
:1005D0006B500199002911D0E026760083199B0009
:1005E0001F5193199B0000211951A223BB40EA50CF
:1005F000A123BB40E8500B4B0122EA500A4A0B4BA7
:10060000EA50A0230422DB00EA500123AB602B60F8
:10061000074B0022DA60F7BD002000400C05000007
:10062000140500006C05000000509D00240500002A
:10063000FC2000400423C046C046C046C046C04619
:10064000C046C046C046C046C046C046C046C0467A
:10065000C046013B002BEED1704710B58022A0248C
:10066000A123E405D204DB00E250FFF7E3FFA2235D
:10067000DB00E3585A01FAD5012010BDF7B5224B33
:100680000191A02280210905D20500900826D150B1
:1006900080270025FFF7E1FF1C4C002812D0A02383
:1006A000A222DB05D2009A58110100D53D438022D9
:1006B000D2041A51013EFFF7BDFF7F08002EE9D199
:1006C000012600E0061CA0228023A321D205C90038
:1006D0001B05535000990D70151C019A002A01D07A
:1006E0002B5102E0A122D200AB50FFF7A3FFFFF78E
:1006F000B4FF431E984180234042DB0406402B5147
:10070000FFF798FF301CFEBD1C0500000C05000023
:10071000F7B5A3238021A0220905DB00D2050190B3
:100720000824D1508025A0271E4E8023DB04FF051E
:10073000BB51FFF77FFF019A80231B052A4203D09C
:10074000A122D200BB5000E0BB51FFF786FF00287A
:1007500005D0013C6D08002CE5D1012600E0061C07
:10076000104BA0248025E405ED04E550FFF762FF5F
:1007700080270D4B3F05E750FFF75CFFFFF76DFF4C
:10078000A223DB00E2580123D20E9343054A064020
:10079000A5501E40FFF74EFFA323DB00301CE7509F
:1007A000FEBDC0460C0500001C05000070B5204BC6
:1007B000204AA024E405A350ED22D200A350A32098
:1007C000A12380228021DB00D2040905C000E25071
:1007D0002250E1502150E150E250FFF72BFFA223BD
:1007E000DB00E258110106D5E1580122890E1142C1
:1007F00001D001201BE0E35813245A0113D4002038
:1008000015E00D4BA0258026ED05F604EE50FFF710
:1008100011FFA123DB00EE50FFF70CFFA223DB004A
:10082000EB581901E5D4013C002CEAD1E7E770BD93
:100830000C0600006C0700000C050000F7B5A025B1
:10084000009201938022A123DB001205ED05EA50FE
:10085000061C0C1CFFF7EEFEFFF7FFFE071E0BD079
:10086000264B80221205EA50FFF7E4FE8023234A3C
:10087000DB04AB50FFF7DEFE301CFFF749FF0740FB
:10088000FFB2251CF30716D5009D013DEDB2FF2DEB
:1008900017D0002F2ED0201C291E00D00121FFF7D9
:1008A000EDFE0134071CF0E7002F23D02878FFF776
:1008B0002FFF0135071C009BE218D2B2EBB29A421F
:1008C000F2D1019A002A01D1002F15D10B4BA0259E
:1008D0008026ED053605EE50FFF7ACFEFFF7BDFEB6
:1008E000041E04D0A123DB00EE50FFF7A3FE274037
:1008F000FFB201E00027E9E7381CFEBD0C0500004F
:1009000010B50021041C01F0AFFB044B1868C36B49
:10091000002B00D09847201C07F004FA587D0000F7
:1009200070B50D4E0D4D0024AD1BAD1005D0A300CC
:10093000F35801349847A542F9D107F0F5F9084E6C
:10094000084D0024AD1BAD1005D0A300F3580134B1
:100950009847A542F9D170BDC8080020C8080020FA
:10096000C8080020D0080020F0B5830746D0541EE8
:10097000002A42D0CEB2031C032503E0621E002CE5
:100980003BD0141C01335A1E16702B42F6D1032C97
:100990002BD9FF250D402A0215432A0415430F2C9D
:1009A00015D9271C103F3F091E1C3A011036B618F6
:1009B0001A1C156055609560D5601032B242F8D1AE
:1009C00001373F010F22DB191440032C0DD9271FDB
:1009D000BF08BA001E1DB6181A1C20C2B242FCD1B4
:1009E0000137BF000322DB191440002C05D01C196D
:1009F000C9B219700133A342FBD1F0BD141C031C12
:100A0000C5E7C0460CB410B59CB0029106910C49E4
:100A10001EAB049107918224012104CBA40002AAF9
:100A200049429481D181111C1E9A019300F02CF847
:100A3000029A002313701CB010BC08BC02B0184707
:100A4000FFFFFF7F0EB400B59CB01DAB04CB82222C
:100A500002A992008A810A4A02908A604A610122B0
:100A60005242CA81074A086110681D9A019300F03A
:100A70000BF8029A002313701CB008BC03B018478F
:100A8000FFFFFF7F38040020F0B544465F4656461E
:100A90004D46F0B4C7B014930B9190460D9002F000
:100AA00005FC00681A9003F003FC0B9C1D90A389C1
:100AB0001D0604D52069002801D101F0A1F836AC4B
:100AC000002529AF0023099429940024BB607B6092
:100AD00019951B941C9536AE1F941E951194C34610
:100AE0005D462B785C46002B1BD0252B02D118E0ED
:100AF000252B3AD001342378002BF9D15846251AFA
:100B0000002D0ED0B8685A462B18BB607B68326047
:100B1000013375607B60072B34DC08361199491965
:100B200011912378002B36D0621C87259346002331
:100B30006D4401222B7052420025637800240C92F0
:100B4000109410220A9540248025914600212020EF
:100B5000A446AA465A4601321C1C203C582C00D9F7
:100B6000CAE2C74DA4002C59A7465946651AC7E7E3
:100B7000109D14946D4210950A9C04231C430A9402
:100B80001378E8E70D980B993A1C03F099FB0028BD
:100B900009D136AEC2E7B868002804D00D980B9989
:100BA0003A1C03F08DFB0B9C1198A3895D0601D5BF
:100BB0000120404247B03CBC90469946A246AB4615
:100BC000F0BD13782B21C6E71378551CA8462A2BB5
:100BD00001D101F0F0F91C1C303C0022092C01D994
:100BE00001F05FF92B1C884691008A1852000133EE
:100BF000A2185C1E21780C1C303C092CF4D91C1C5A
:100C00000B1C4146A046002A01DA01F067F80C925D
:100C10004246A1E70A9C55462C430A9413789AE76A
:100C20000A9C1793102387251C436D440A9429704E
:100C30000A9D9346AD0600D470E1149A072307324B
:100C40009A43141C53681268083414941292139334
:100C5000002B00DA70E187256D442D78129A1398E5
:100C6000A846012302430C9C002C03DB0A9D802133
:100C70008D430A95002A00D068E30C9C002C00D01C
:100C800064E3002B01D000F0C1FC0A9DED0701D404
:100C900000F0BCFC6D46D7353023099C2B70641BDB
:100CA0000F9415950F9B0C9DAB4200DA2B1C002472
:100CB0000E9318944546002D02D00E9C01340E94DC
:100CC0000A9D02231D40AA4602D00E9C02340E94B7
:100CD0000A9D84231D40A94600D017E2109D0E985E
:100CE0002C1A002C00DC11E2BA687B68102C01DCA5
:100CF00000F0F0FF634D311CA8464646102503E086
:100D0000103C0831102C15DD103201330E604D609F
:100D1000BA607B60072BF3DD0D980B993A1C03F04A
:100D2000CFFA002800D03EE7103CBA687B6836A9AD
:100D3000102CE9DCB0460E1C404674600133A41848
:100D40003060BC607B60072B01DD00F0B6FC8721C2
:100D50006944097808368846D9E1179387236B449C
:100D60001970149B93460733072293431D1C0835C3
:100D700014951C681B945B681B981C931C9903F0CA
:100D80004BFA012801D000F0CFFD1B981C993B4B7A
:100D9000394A04F05BFD002801D000F0F0FF872500
:100DA0006D442D78A846179C472C01DC00F024FFE9
:100DB000354C15940A9D80239D4303240A950E9477
:100DC00003250F95002400250C94189572E7002444
:100DD00010941C1C303C002388469900CB185B0003
:100DE00001321B19541E21780C1C303C092CF4D9FB
:100DF00010930B1C4146AFE60A9D08231D430A953C
:100E00001378A8E60A9C179310231C430A940A9DA2
:100E10009346AD0600D45FE1149B0722073393434A
:100E20001C1C083414941C685D6812941395221CD1
:100E300000232A43872400216C442170884612E74E
:100E40000A9C179310231C430A940A9D9346AD06EF
:100E500000D42BE1149B0722073393431C1C083456
:100E600014941C685D68221C1294139501232A4374
:100E7000E0E7C046C046C046000000000000000099
:100E80005C7D0000147F0000D47E00009346BC4CC3
:100E900087220A9D6A44179311701F94AD0600D4EF
:100EA000A1E0149B0722073393431C1C08341494BD
:100EB0001C685D68129413950A9DED0701D400F03B
:100EC0000CFC129A139802230243B3D00A9D179C7C
:100ED00022A930201D4308704C700A95AAE7149C83
:100EE0001793149B04341B6893462CAD149401246F
:100EF00087202B70684400230E940F940024037005
:100F000098460C9418941595DAE687200A9D684453
:100F1000179393460170AD0600D58EE60A9DED0647
:100F200001D400F040FD149C236804341293DB17B5
:100F30001393149400D48EE612981399002544421A
:100F40008D4187212D236944221C0B7098461294F1
:100F5000139501232A4386E687250A9C6D44934610
:100F60002970A40601D400F0F9FC149D119C2B6893
:100F7000E21704351C605A601495B1E5149B149D6A
:100F80001B680A9C1293043502231C43934622AB30
:100F9000302214957B4D1A70002078220A94782410
:100FA0005A7013901F9502231794129A42E70A9CD5
:100FB00065462C430A941378CDE51378141C6C2BEA
:100FC00001D100F07FFD0A9C4D462C430A94C2E5F6
:100FD00087256D4429706B4C0A9D179393461F9487
:100FE000AD0600D55DE70A9DED0601D400F0CDFC0D
:100FF0001498149C006800210434129013911494E6
:101000005AE70A9C04430A941378A4E5149D149C9F
:101010002D68872017936844002393460434159560
:101020000370002D01D100F091FE0C9D1598002D4C
:1010300001DA00F043FE00212A1C02F0D1FB002857
:1010400001D100F0F3FE159D401B0C9D0F90A842AE
:1010500000DD0F9587200F9D68440078EB43DB1778
:1010600080461D400E951494002500240C9418957C
:1010700020E60A9D01231D430A9513786BE5149D14
:10108000149C2D6804341095002D00DA70E5137857
:10109000149460E51378002900D05CE520215AE51E
:1010A0000A9D17939346AD0600D5D3E60A9DED063B
:1010B00001D400F09DFC1498149C006800210434B5
:1010C0001290139114940123021CB3E60A9D179306
:1010D0009346AD0600D59FE60A9DED0601D400F0CB
:1010E00072FC1498149C006800210434129013912F
:1010F00014940023021C9DE687256D4417939346A4
:101100002970002B00D146E52CADF0E6BC684346C3
:10111000002B0DD0012373607B6887256D4401345B
:1011200001333560BC607B60072B00DD1AE20836B6
:10113000504600280CD022AB3360022373607B68DA
:1011400002340133BC607B60072B00DD22E20836ED
:101150004946802900D17DE10C9A0F9BD51A002DBC
:101160003EDD7B68102D01DC00F052FC06491022A8
:1011700089469246211C321C0D9C2E1C4D4609E0CE
:10118000E07E0000F47E0000C07E0000103E0832C9
:10119000102E16DD50461031013315605060B960D5
:1011A0007B60072BF2DD201C0B993A1C03F088F8BA
:1011B000002800D0F7E4103EB9687B6836AA102EEC
:1011C000E8DCA9460C1C351C161C49466419013381
:1011D00031607560BC607B60072B00DDB6E10836CE
:1011E0000A9DED0500D5D8E0159D7B6835600F9D03
:1011F000013364197560BC607B60072B00DD9AE0E9
:1012000008360A9D6D0743D510980E99451A002D92
:101210003EDD7B68102D01DC00F0ADFDDA481021C9
:101220008946321C211C2E1C80460D9C0B9D03E020
:10123000103E0832102E17DDD348103110600133F4
:1012400048465060B9607B60072BF1DD201C291CEB
:101250003A1C03F035F8002800D0A4E4103EB96829
:101260007B6836AA102EE7DC351C0C1C161C414688
:101270006419013322C6BC607B60072B08DD0D9822
:101280000B993A1C03F01CF8002800D08BE4BC68D2
:101290000E9B109DAB4200DA2B1C119DED18119591
:1012A000002C00D025E100237B6036AEFFF718FC50
:1012B000199D012D00DCEFE2012373607B68159D11
:1012C000013401333560BC607B60072B00DD04E333
:1012D00008361A9D013335601D9D98466419756066
:1012E000BC607B60072B00DD04E308361B981C996B
:1012F000A44BA34A04F0A4FA002800D0F3E1199B00
:10130000159D0121013B88440135E41842463560B2
:101310007360BC607A60072A00DDDCE0083625AB2C
:101320001E9D33604346641901337560BC607B6069
:10133000072B00DC64E70D980B993A1C02F0C0FF04
:10134000002800D02FE4BC6836AE5AE7012B00D14C
:101350002CE1022B00D0D6E01F9D6B46D7330F2126
:10136000A946B4461C1C129A139B201C0C1C14404A
:101370004D462C5D1E071509321C04702A431C09BA
:10138000231C151C441E1D43EFD1099C1590241AE3
:101390001292139366460F9484E4179D652D87DDA2
:1013A0001B981C99774B764A04F04AFA002800D122
:1013B00032E1764B01343360012373607B68BC609B
:1013C00001337B60072B00DD26E308362398199D47
:1013D000A84203DB0A9DED0700D412E71A9D7B6843
:1013E00035601D9D013364197560BC607B60072BFF
:1013F00000DD6EE30836199D013D002D00DC00E79D
:101400007B68102D01DC00F0CEFD61491022894679
:101410009046211C321C0D9C2E1C4D4604E00832C7
:10142000103E102E00DCADE1404610310133156056
:101430005060B9607B60072BF1DD201C0B993A1CD2
:1014400002F03EFF002801D0FFF7ADFBB9687B68D2
:1014500036AAE5E7109A0E9BD51A002D00DC7BE634
:101460007B68102D01DC00F0B7FC49491022894649
:101470009246211C321C0D9C2E1C4D4603E0103E52
:101480000832102E17DD50461031013315605060C0
:10149000B9607B60072BF2DD201C0B993A1C02F02F
:1014A0000FFF002801D0FFF77EFB103EB9687B6874
:1014B00036AA102EE7DCA9460C1C351C161C494622
:1014C0006419013331607560BC607B60072B00DDFF
:1014D0001EE2083640E60D980B993A1C02F0F0FE29
:1014E000002801D0FFF75FFB7B68BC68984636AEEA
:1014F00015E70D980B993A1C02F0E2FE002800D186
:10150000D1E6FFF750FB6B46D7330720B446129C59
:10151000139D021C22403032191C1A706B07994629
:10152000E6084C46EB0834431D1C261C4B1E2E437C
:10153000EFD1129413950A9C15916646E40700D5E5
:101540002FE1099D6D1A0F95FFF7ACFB0D980B99D4
:101550003A1C02F0B5FE002801D0FFF724FBBC685E
:1015600036AE3DE60D980B993A1C02F0A9FE002814
:1015700001D0FFF718FBBC6836AED9E5C046C046BF
:101580000000000000000000147F0000107F000039
:10159000C07E00000D980B993A1C02F091FE0028C5
:1015A00001D0FFF700FBBC6836AED1E513980028E8
:1015B00002D11299092923D96B46D733B146129C1F
:1015C000139D1E1C201C291C0A22002304F066F90E
:1015D00030323270201C0A220023291C04F05EF9EC
:1015E000021C041C0D1C731E0A43EAD115961294AA
:1015F0001395099D159C4E462D1B0F95FFF752FB29
:101600006D460B1CD7353033FFF747FB002536AC52
:101610000F951594FFF746FB239B002B00DC07E298
:1016200015981999189A4518281A8046904200DD95
:101630009046404600280BDD7B68159944440133F1
:1016400031607060BC607B60072B00DD4AE30836C8
:101650004246D343DB1718981340C01A804600282F
:1016600000DCBBE07B68102801DC00F0A0FCDE4A57
:1016700010209146211C321C44468246A8464E4604
:101680000D9D04E00832103C102C00DC95E0504623
:101690001031013316605060B9607B60072BF1DDBB
:1016A000281C0B993A1C02F00BFE002801D0FFF712
:1016B0007AFAB9687B6836AAE5E70D980B993A1C67
:1016C00002F0FEFD002801D0FFF76DFA87226A4480
:1016D0001278BC68904636AE19E5129A1398022328
:1016E0000243FFF7A7FB199D013D002D00DC16E624
:1016F000102D01DC00F040FCBB49102289469246C7
:10170000211C321C43462E1C0D9C4D4603E0103E0E
:101710000832102E17DD504610310133156050602D
:10172000B9607B60072BF2DD201C0B993A1C02F09C
:10173000C7FD002801D0FFF736FA103EB9687B6874
:1017400036AA102EE7DCA9460C1C351C9846161C40
:101750000122904449466419434631607560BC607B
:101760007B60072B00DCD9E50D980B993A1C02F041
:10177000A7FD002801D0FFF716FA7D68BC68A846CF
:1017800036AECCE5A9460C1C351C161C494664191E
:10179000013331607560BC607B60072B00DC2FE596
:1017A000C9E5302A03D01593013930230B70099C09
:1017B000159D641B0F94FFF775FA4546B146A04688
:1017C000161C0C1C49464246444401333160726089
:1017D000BC607B60072B00DDACE20836159B1998D6
:1017E0009846189B9844239B834247DB0A99C90774
:1017F00044D441466A1A199DEB1A1D1E954200DD1C
:10180000151C002D0BDD7A684046641901323060EA
:101810007560BC607A60072A00DD7CE20836EA4326
:10182000D21715405D1B002D00DCEAE47B68102D0B
:1018300000DCD1E36C4A10209146211C321C80460A
:101840002E1C0D9C4D4603E00832103E102E99DDF3
:1018500040461031013315605060B9607B60072B42
:10186000F2DD201C0B993A1C02F02AFD002801D061
:10187000FFF799F9B9687B6836AAE6E71A9A1D98C6
:1018800032607A68241801327060BC607A60072A7E
:1018900000DD33E20836ACE70A9D01232B4200D07D
:1018A0000AE57868159D8046012080440134414650
:1018B00035607360BC607960072900DC2EE50D9807
:1018C0000B993A1C02F0FCFC002801D0FFF76BF9E1
:1018D0007A68BC68904636AE21E50D980B993A1CA3
:1018E00002F0EEFC002801D0FFF75DF9BC687B68D0
:1018F00036AEEEE40D980B993A1C02F0E1FC00289C
:1019000001D0FFF750F97868BC68804636AEEDE448
:101910000D980B993A1C02F0D3FC002801D0FFF778
:1019200042F9BC6836AE17E41B981C9902F074FCAF
:10193000002800D0D9E0179C472C00DC6EE12B4C2E
:10194000159487200A9D6844802300789D430324D2
:101950000A9580460E940325FFF733FA0A9DED069B
:101960000BD40A9C640608D5149D119C2D682C800C
:10197000149D04351495FFF7B3F8149C119D23684A
:1019800004341D601494FFF7ABF80A9D6D0600D473
:101990006FE1149C0025248813951294149C043440
:1019A0001494FFF789FA0A9D149C6D0601D4FFF781
:1019B000BBFA0023E35E149D12930435DB171393E7
:1019C0001495FFF745F90A9D6D0600D439E1149C82
:1019D0000025248813951294149C00230434149435
:1019E000129AFFF727FAC046C07E0000DC7E000096
:1019F0000A9D6D0600D430E1149C002524881395BF
:101A00001294149C012304341494129AFFF712FACE
:101A1000E1488146FFF7D9FB0D980B993A1C02F07B
:101A20004FFC002801D0FFF7BEF8BC6836AECDE40D
:101A3000DA4A01343260012272607A68BC60013295
:101A40007A60072A00DDECE00836181C002807D170
:101A5000199D002D04D10A9DED0701D4FFF7D1FB9C
:101A60001A9D7B6835601D9D013361197560B960F1
:101A70007B60072B00DD19E2321C08324442002C47
:101A800000DC0CE1102C00DCC6E2C34D102604E0A3
:101A90000832103C102C00DCF5E0103101331560E9
:101AA0005660B9607B60072BF2DD0D980B993A1CEC
:101AB00002F006FC002801D0FFF775F8B9687B68D2
:101AC00036AAE6E70A9D013205430A956378FFF7D7
:101AD00042F80D980B993A1C02F0F2FB002801D055
:101AE000FFF761F8BC6836AE85E4179D20230C9C97
:101AF0009D43A946013400D1A0E0472D00D1C9E1A2
:101B000080230A9C5B001C431C9D1C9B1694A846CA
:101B1000002B00DAE7E100240E94179D662D00D11A
:101B20005EE1462D00D15BE14B460C9C453B5A42A1
:101B30005341E4180223009323AB029324AB039395
:101B400027AB049301940D981B9A434600F0C8FB01
:101B5000A2461590672D01D0472D03D10A9DED07B0
:101B600000D4E0E115984946041C5444462900D1AC
:101B700048E1884B864A1B98414603F061FE221CCF
:101B800000280BD1279B1A1C9C4207D930215A1CD4
:101B900027921970279B9C42F9D81A1C159C4D4618
:101BA000121B1992472D00D10EE1179C652C00DC09
:101BB00038E2179C662C00D1A8E1239D1895199C4A
:101BC000189DAC4200DD7FE10A9CE40700D5D7E117
:101BD000EB43DB172B400F95672517950E9D002DC6
:101BE00000D0E5E0872068440078169C80460E937C
:101BF0000A940C95FFF75EF8694D1595FFF7DAF832
:101C00000D98402101F066FB20602061002800D182
:101C10000DE20B9D40236B61FEF751FF614D159561
:101C20008FE60D980B993A1C02F04AFB002801D070
:101C3000FEF7B9FF2398BC6836AE07E706240C947C
:101C40005EE7149D149C2D680020043412951390B7
:101C5000149400232A1CFFF7EDF8149D149C2D68A2
:101C60000020043412951390149401232A1CFFF7CA
:101C7000E1F8149D149C2D680020043412951390F3
:101C80001494FFF719F9A946484609190133106061
:101C90005460B9607B60072B00DD2AE10832159C97
:101CA000199D146001334C195560BC607B60072B93
:101CB00001DDFFF740FB161CFFF7A2FA02F0F8FA6D
:101CC0000F90C343872068440078DB1780460F9D40
:101CD000FFF7C7F934498846FFF72EF80122524230
:101CE000FEF795FF0D980B993A1C02F0E9FA0028CF
:101CF00001D0FEF758FFBC6836AEA9E40D980B99E9
:101D00003A1C02F0DDFA002801D0FEF74CFF239BBD
:101D1000BC6836AE6DE50D980B993A1C02F0D0FA0E
:101D2000002801D0FEF73FFF199C239836AE231AF6
:101D3000BC6874E50D980B993A1C02F0C1FA0028B2
:101D400001D0FEF730FFBC6836AE47E50C9B062B92
:101D500000D906230F930F9DDB43DB171494002457
:101D60001D400C94114C0E950020002580461895BE
:101D70001594FEF7A5FF0C4A9046FFF778FA8720E6
:101D80002D23684403709846FFF70DF8C046C046FF
:101D90000000000000000000C07E0000107F000076
:101DA000D07E0000D87E0000147F0000087F000075
:101DB000169C87202D2268440A94002402700E93FA
:101DC00090460C94FEF779FF239CE01C36DB0C9DBB
:101DD000A54233DB1894F2E69B488146FFF76FFB80
:101DE0000323009323AB0C9C029324AB039327ABF8
:101DF000049301940D981B9A434600F071FAA24691
:101E00001590AFE60378302B02D0239BE418B0E6A0
:101E10001B9841468B4B8A4A03F012FD0028F4D1EF
:101E2000012350461B1A2393E418A2E68720684436
:101E300000780E9580461494FEF7C3FF179D023D6F
:101E40001795179825AD013C2394A8462870002CBF
:101E500000DAD4E06B462B2295331A70092C64DC2F
:101E60006B469633302230341A705C7026AB444691
:101E7000199D1C1B2D191E94199C0F95012C00DC1B
:101E8000B7E00F9C01340F94E343DB170025234098
:101E90001895A3E60C9C002C00D031E601250C958A
:101EA0002EE600242A1C0C94FEF756FE0D980B9982
:101EB0003A1C02F005FA002801D0FEF774FE2398C0
:101EC000B9687B6836AAD9E5189C0123002C00DC90
:101ED000A5E0199D5B190F930F9CDB43DB1767256A
:101EE000234017957AE680252D062D24A8440E94CC
:101EF00013E60D980B993A1C02F0E2F9002801D084
:101F0000FEF751FEB9687B6836AAC8E6239C0C9D93
:101F10001894002C64DD002D3BD10A9CE40738D4D2
:101F2000189B0F935AE6279A38E6A22169448946FE
:101F30000B1C201C0A211D1C03F066FC303129708B
:101F4000201C0A2103F00AFC6B1E041E092CF0DC85
:101F500030346A46E4B2A3321C70934264D20D3A24
:101F600001E05C780133147001329945F9D1962271
:101F70007B1B6A44D3187AE733488146FFF7E8FBB6
:101F8000189C67250134E343DB170F942340179512
:101F900024E60C9B189D0133EB180F930F9CDB4339
:101FA000DB1723401AE628488146FFF7EFFB264956
:101FB0008946FFF707FC149D149C2D680434537860
:101FC0000C9514944246002D01DBFEF7C4FD01245C
:101FD00064420C94FEF7BFFD1B498946FFF7D6FB10
:101FE000002D12D10A9CE4070FD4012401230F9481
:101FF000F4E50A9DED0700D543E70F9C44E76B46E7
:102000002D22953364421A7028E70C9D0235EB436C
:10201000DB170F952B40E1E50B48814634E60223A0
:102020001B1B56E7239C0CE76B4696331FE70D9C62
:102030000C23012023604042FEF7BCFDC046C04691
:102040000000000000000000C07E0000C046C04646
:1020500008B5034B002B02D0024800F091F808BDF0
:102060000000000019320000F0B55F4656464D46AC
:102070004446F0B4404B85B01B680290019349334D
:10208000FF3303930F1C0198A42149004258904646
:10209000002A4AD00398814641464E68741E41D4B6
:1020A0004546A3008835ED18C620C42301365B00E1
:1020B0004000B6009B4682464644C344C24408E002
:1020C0002B1C80331B68BB4205D0043D043E013C01
:1020D00028D3002FF4D141464A683368013AA2421E
:1020E0002CD000223260002BEFD040465946406889
:1020F00001220968A240009011421DD0504600689C
:1021000010421DD102982968984741464968009AB3
:102110009142B8D14A4612684245B4D1043D043ECA
:10212000013CD6D2154A002A0DD105B03CBC9046E0
:102130009946A246AB46F0BD9847E6E74C60D2E729
:1021400028689847E1E743465B684046002B0DD17D
:102150000368002B0ED049460B6000E000BF4B46E1
:102160001A6890464146002996D1DEE70368C146C9
:102170009846F7E70023FAE7587D000000000000CA
:1021800008B5011C00220020002302F091FE08BDCA
:10219000F0B544465F4656464D46F0B480468B4601
:1021A0000C694146096985B000208C4200DD90E051
:1021B0005D46013C1435A30002954746ED181437DF
:1021C0002968FB1801311868039303F079FA061E99
:1021D00042D000218A46029B3A1CAC46B94655467D
:1021E000071C0E1CA24602CB0804000C7843090C05
:1021F00079433018040C6418116800040904090CB0
:102200004D19000C281A1568260C2404290C240CDE
:102210000514091B491900040D14000C090401439D
:1022200002C29C45DFD203993E1C096865464F46B1
:102230005446002910D1039B043B9F420AD21A68DE
:10224000002A03D006E01968002903D1043B013CB1
:102250009F42F8D3424614614046594601F0CEFDF4
:10226000002835DB002189460136211C029BB4463B
:102270004C463A1C2E1C8946116820CB0804000CE1
:1022800004192804000C201A090C2D0C0414491BF5
:10229000091900040C14000C0904014302C29E42F7
:1022A000EAD24C46A300FB181A686646002A0FD1F2
:1022B000043B9F420AD21D68002D03D006E0196836
:1022C000002903D1043B013C9F42F8D342461461EC
:1022D000301C05B03CBC90469946A246AB46F0BDCA
:1022E000F0B556464D465F464446F0B4016C9DB08D
:1022F0008246299D02920393002909D0436C012252
:102300009A404B608A6001F01BFB002351460B642E
:10231000039E002E34DB00232B601F4B321C1A401F
:102320009A421AD0029C039D1A4B194A201C291C60
:1023300003F086FA002837D0289C2A9D01232360C9
:10234000002D00D13AE21548286001381DB03CBC90
:1023500090469946A246AB46F0BD114B289C029D83
:102360002360002D00D10CE20E482A9C002CEDD0F9
:10237000C278C31C002A00D005332A9D2B60E5E7F4
:102380007600012376082B600396C6E7C046C04658
:1023900000000000000000000000F07F117F00003E
:1023A0000F270000307F00001BAB00931AAB019396
:1023B00050462B1C221C01F029FE330D834600D110
:1023C000E4E1201CBC4C2A03120B211C1143BB4A24
:1023D00000241A9F9E181394A84BA74A04F0D0FC1F
:1023E000A74AA84B04F03CFAA74AA84B03F0ACFA62
:1023F000041C301C0D1C05F02BF8A54AA54B04F05D
:102400002FFA021C0B1C201C291C03F09DFA041C33
:102410000D1C04F0E9FFA04AA04B0890291C201CC9
:1024200003F014FA002800D0BBE2089D01241194A7
:10243000162D0FD8A24AEB00D31818685968029AD3
:10244000039B03F017FA002800D1CDE3013D0024DF
:10245000089511940024BE1B0994013EB14600D595
:10246000ACE2089C002C00DA92E20025A1440D9415
:102470000B95269C092C00D9A2E10125052C02DD33
:10248000043C26940025269C032C01D100F0FFFC7F
:1024900001DC00F07FFC269C042C01D100F0FDFB48
:1024A00001241094269C052C00D08BE1279C0899D0
:1024B0006418129401340A94002C01DC00F037FCFB
:1024C0000023524653640021172C0AD90122042309
:1024D0005B00181C1430111C0132A042F8D953467D
:1024E0005964504601F004FA51460C9008640E2CD1
:1024F00000D978E1002D00D175E1089D002D01DCA7
:1025000000F002FD2A1C0F236D491A40D2008A18E0
:102510000899146855680E11F20601D400F0C3FC46
:102520001E40684B029803991A6A5B6A03F02EFDFD
:102530000E900F9103239846002E12D0614F201C5D
:10254000291C44460123334204D03A687B68013495
:1025500004F086F976100837002EF3D1A0460D1C42
:10256000041C0E980F99221C2B1C03F00FFD061C57
:102570000F1C119D002D09D0301C391C484A494BB5
:1025800003F064F9002801D000F0A9FD404604F0F2
:102590005FFF021C0B1C301C391C04F061F9424A1D
:1025A000424B03F0D1F90E900F910F9B464C0A9DC0
:1025B0001C190F94002D01D100F044FC089C0A9DC9
:1025C0001894A846109C002C01D100F0DEFC434674
:1025D0003B4A013BDB00D3181A685B683448354935
:1025E00003F0D4FC0E9A0F9B04F0CAFB14901591D3
:1025F000391C301C04F0F8FE041C04F029FF021CF6
:102600000B1C301C391C04F0BBFB271C30370C9D05
:102610000E900F910E9A0F9B149815990C9EFFB275
:102620002F70013603F026F9002801D000F097FD45
:102630000E9A0F9B1A481B4904F0A2FB021C0B1CAC
:102640001498159903F016F9002801D000F0C3FD85
:102650004146012900DCC6E04C46199452465C46CE
:10266000A8441694B1460E9C0F9D149E159F0E9281
:102670003EE0C046C046C046000000000000F83FF3
:1026800061436F63A787D23FB3C8608B288AC63F78
:10269000FB799F501344D33F00000000000000006E
:1026A000000000000000F03F0000000000001C409F
:1026B000000000000000E03F0000F03F01FCFFFFD1
:1026C000407F0000088000000000C0FC221C2B1C82
:1026D000BE49BD4804F054FB321C3B1C03F0B6F865
:1026E000002801D000F053FDC14501D100F05BFD91
:1026F000301C391CB64AB74B04F0B2F8B44AB54B9B
:10270000061C0F1C201C291C04F0AAF80D1C041C1C
:1027100004F06AFE824604F09BFE021C0B1C201C87
:10272000291C04F02DFB0D1C012101234942994471
:102730008B4653463033CB44DBB25A46041C1370ED
:102740009A46201C291C321C3B1C03F07FF80028F1
:10275000BCD00E9C169BA246189C9B464E460894E5
:102760005046594601F0ECF800233370089B289C32
:102770002A9D01332360002D00D108E32E600C98C0
:10278000E4E5360300D0EFE59548EEE51A9F1B9986
:10279000944B7D189D4200DA20E29348934A401BF7
:1027A000029C8640AB18301CDC40204304F08EFEB7
:1027B0008F4A012489186E1E13940DE68D48C5E5D5
:1027C000002426940023554600216B64504601F0F6
:1027D0008FF801267642002101240C9028640A9685
:1027E0001296279110941B9B002B00DAB2E0089DF3
:1027F0000E2D00DDAEE0804AEB00D3181C685D684A
:1028000004940595279D002D00DA50E2029C039D5B
:10281000049A059B201C291C03F0B8FB04F0E4FD7E
:10282000804604F015FE049A059B04F019F8021C7A
:102830000B1C201C291C04F0A3FA43460C9A3033CD
:102840000C9E13700A9B041C0D1C0136012B53D0E7
:102850005F4A604B04F004F85F4A604B041C0D1C97
:1028600002F0EEFF002800D07AE70C990C9F894611
:102870000A99023752465B46BA4689440293079248
:10288000049E059F12E0101C191C514A514B03F085
:10289000E7FF514A514B0D1C041C01218A44201CA6
:1028A000291C02F0CDFF002800D0B2E2321C3B1CF4
:1028B000201C291C03F06AFB04F096FD804604F0FE
:1028C000C7FD321C3B1C03F0CBFF021C0B1C201C61
:1028D000291C04F055FA021C0B1C041C0D1C40465C
:1028E000514601393030D3460870CA45CBD1029ADF
:1028F000079B564693469A46221C2B1C201C291CDB
:1029000003F022F8041C0D1C221C049805992B1CB2
:1029100002F09CFF00280CD104980599221C2B1C66
:1029200002F08EFF002800D11AE74346DB0700D4EF
:1029300016E7741E27780C9B06E0A34200D1CAE27A
:10294000023E3778261C013C392FF6D00137FFB202
:10295000277005E7109C002C50D0269D012D00DC2F
:10296000CCE10A9C0B9D013CA54200DA93E22C1BB2
:102970000A9D002D00DA99E3099E0A9B099D5046A5
:10298000ED1801210995994401F0D0F8071C38E0B1
:10299000089D099C641B09946C4200250B940D95BD
:1029A00067E5089804F054FD2B1C221C02F048FF38
:1029B000089D43424341ED1A089536E54D466D4268
:1029C0000995A1464DE5C046000000000000F03F1B
:1029D0000000000000002440000000000000000093
:1029E000247F0000EFFBFFFF0EFCFFFF120400003E
:1029F000000010FE107F0000407F00000B9C099E2D
:102A00000027002E0DD0494600290ADD4B46B1456E
:102A100000DD40E1099D4946ED1AC91A0995F61AEB
:102A200089460B9D002D1ADD109D002D00D127E257
:102A3000002C10DD391C221C504601F023F9071C24
:102A40005A46391C504601F07BF85946051C504641
:102A500000F076FFAB460B9D2A1B00D048E15046A4
:102A6000012101F063F80D9C8046002C05DD4146F4
:102A70005046221C01F006F98046269D0024012DB7
:102A800000DC8EE10D9D0123002D00D074E14B444C
:102A90001F22134000D19FE02022D21A042A00DC1A
:102AA0009FE31C22D31A099DF618ED180995994445
:102AB000099D002D05DD594650462A1C01F03EF9BE
:102AC00083464946002905DD414650464A4601F005
:102AD00035F98046119D002D00D02EE10A9D002D74
:102AE00000DC71E1109D002D00D180E0002E05DD9D
:102AF000391C5046321C01F021F9071CB946002C44
:102B000000D02EE20C9C0A9D231C013B5B19029D08
:102B10000D9301231D4042460295A0465D46079253
:102B200054460799281CFFF733FB031C30330A90E7
:102B3000391C281C099301F061F9079982464A461D
:102B4000201C01F077F9C168061C002900D0E4E0E0
:102B5000281C311C01F052F98346311C201C00F066
:102B6000EFFE26995B460B43514603D1029A002A99
:102B700000D1F8E2002900DA62E2269953460B43BD
:102B800003D1029A002A00D1FAE25946002900DD59
:102B900076E2099A41460A700D9946460136884503
:102BA00000D17CE2291C0A220023201C00F0D2FE66
:102BB000391C051C0A22201C00234F4500D1A6E029
:102BC00000F0C8FE4946071C0A22201C002300F022
:102BD000C1FEB0468146A4E71C2364E7C6480299BB
:102BE000401B8140081CE1E50025119532E40C9A58
:102BF000B946002447460A9E5D46904606E0291CD9
:102C000050460A22002300F0A5FE051C391C281C92
:102C1000FFF7BEFA031C303341460B550134A64280
:102C2000EDDC0A9EB8460993AB464F46002E00DC09
:102C300040E20C9C0025A61959465046012201F09D
:102C40007DF84146834601F0D9F8002800DC32E1E6
:102C5000741E23780C9A06E0A24200D1D2E0023E14
:102C60003378261C013C392BF6D0013323705046B3
:102C7000414600F065FE002F00D171E5002D05D022
:102C8000BD4203D05046291C00F05AFE5046391C64
:102C900000F056FE64E5331CBCE60124109427992D
:102CA00000293DDD0C1C12910A91FFF709FC0A9CDA
:102CB000002C00DDAAE500D085E28C4B8A4A0498FE
:102CC000059903F0CDFD029A039B02F0DDFD00287B
:102CD00000D1FCE0002290460027279C0C9EE44394
:102CE00008945046414600F02BFE002FCED137E528
:102CF0005946504600F0C6FF8346B0E6139C002CB0
:102D000000D1D9E17D4D0B9C5B19099E36E600F0A0
:102D100021FEB046071C814603E7012293461CE7CB
:102D2000012301210122012412930A912792514685
:102D300000234B640021FFF7D4FB5846414601F0C5
:102D40005DF8002800DBC9E6089D5946013D504664
:102D50000A220023089500F0FDFD129D83460A9586
:102D6000109D002D00D1B9E6391C50460A220023DF
:102D700000F0F0FD071CB1E641460B6903339B00F0
:102D80004344586800F086FE20231B1A7FE60C9807
:102D9000FFF7DCFA00241094269C022C00D17EE779
:102DA00010E50299002900D06CE6039A130300D0C5
:102DB00068E6534B134200D164E6099C01250134B7
:102DC0000994A94401245DE6269D022D00DC89E6D4
:102DD0000A9C002C81D1414650460522002300F078
:102DE000B9FD80464146584601F008F8002800DC4D
:102DF00073E7089D0C9E0C9C31230135013623702E
:102E000008956EE7089C3123013408940C9C2370CC
:102E10002DE70299079A5E4692468B46A0E440460B
:102E200004F016FB021C0B1C301C391C03F018FDAF
:102E30002F4A304B02F088FD0E900F910F99314AC6
:102E40008A180F92294B284A301C391C03F098FF2E
:102E50000E9A0F9B041C0D1C02F00CFD002836D1AD
:102E6000201C291C0F9C80252D060E9A631902F048
:102E7000EDFC002800D1B6E40025A84600272CE789
:102E8000594650460B9A00F0FDFE8346E7E50024C4
:102E90001094FFF70BFB0B9D0B94631B0D9D0024FF
:102EA000ED180D9564E50299039A0E910F92022296
:102EB0009046FFF741FB002804D1099CE40701D5A7
:102EC000C6E61E1C731E1A78302AFAD0CFE60025FB
:102ED000A84600278DE7089D3023013508950C9DF5
:102EE00031272B7027703BE40000000000001440E5
:102EF0000000000000001C40EEFBFFFF3304000058
:102F00000000F07F0000C0FC089D6C42002C00D146
:102F1000D8E00F232340BC4ADB00D3180298039962
:102F20001A685B6803F09CFC2411061C0F1C002C23
:102F300000D14CE102218846B44D301C391C464674
:102F40000122224204D02A686B68013603F088FC13
:102F500064100835002CF3D1B0460F1C061CFFF797
:102F600008FB7968504600F0C3FC3A69391C02320C
:102F7000041C92000C310C3000F074FC5046211CF3
:102F8000012200F0DBFE8146BCE54546013D9E4A3C
:102F9000EB00D318186859680E9A0F9B149503F02C
:102FA0005FFC16901791391C301C04F01DFA0E902E
:102FB00004F04EFA0B1C021C391C301C03F0E0FE1E
:102FC0000E9F0D1C0C9E0C9930370F70013641443A
:102FD0004346041C371C0E91012B1ED0B046201C0A
:102FE000291C844B824A03F03BFC041C0D1C04F09A
:102FF000FBF9061C04F02CFA021C0B1C201C291CDB
:1030000003F0BEFE30360E9C3E700137A742E8D179
:103010000D1C14994646041C7618774A774B16986F
:10302000179902F091FC221C2B1C02F00FFC0028C7
:1030300000D180E0189D741E277808950C9B83E4CE
:10304000079A5E46A246AB4644469046002E11DDE6
:1030500059465046012200F071FE4146834600F079
:10306000CDFE002800DCA6E0099D392D30D00A9D58
:1030700031350995099D661C25703D1C4F46F6E5C6
:10308000AB46079A099DA24644469046392D1FD06B
:10309000099B3D1C0133661C23704F46E7E5AB4698
:1030A000079DA246A8463D1C4F46C5E50999002349
:1030B0004E1B63E40126BCE51A9936235B1A0B9C70
:1030C000099E5BE40223029E039F9846FFF751FA94
:1030D00039233D1C661C23704F460C9AC3E50A9C9D
:1030E000002C00D19BE6129D002D01DCFFF77BFB3D
:1030F000089C404B3E4A301C391C013C189403F09C
:10310000AFFB061C404601300F1C04F0A1F9021C65
:103110000B1C301C391C03F0A3FB394A394B02F05D
:1031200013FC0E900F910F9D3949129A69180F9157
:103130009046FFF747FA169A179B2F482F4903F03E
:103140001FFE221C2B1C02F095FB002801D1FFF76B
:103150004AFB00E01E1C731E1A78302AFAD0189D14
:103160000895FFF7FDFAAB46079A099DA246029122
:1031700044469046392DABD0002900DD77E779E74A
:10318000079B5E46A246AB46444698465EE70E9DC8
:1031900057461699AA46189D5C464E468B4608959A
:1031A0000C9BFFF7D1FB199A169B0E9C91469B46F0
:1031B000A246FFF718FB002800D05BE7099DED074A
:1031C00000D457E750E700218846002785E5022410
:1031D000A046FFF7CEF9189C08940C9C231CFFF71F
:1031E000B3FB042A00D163E43C22D31A5BE4C0465B
:1031F0000000000000002440000000000000E03F4C
:103200000000000000001C40407F0000088000001B
:103210000000C0FCC046C04638B5094B094DED1A48
:10322000AD1009D0013DAC00E41800E0013D236879
:103230009847043C002DF9D104F07CFD38BDC04610
:10324000D0080020D408002038B5141E05D0101C6A
:103250000B4901F023F8002802D10A4D281C38BD83
:10326000084D201C291C01F019F80028F6D0201C5C
:10327000054901F013F84342584140422840EEE727
:10328000347F0000547D0000F07E0000004870474D
:1032900094040020014B18687047C046B404002015
:1032A000004870473C0400200020704700487047E9
:1032B0005C04002008B50A1C0349031C0868191C9B
:1032C000FFF7C2FF08BDC046380400200048704721
:1032D0005C040020F0B5564644465F464D46F0B4C7
:1032E0000C1C0B3483B0061C162C2BD907239C43D3
:1032F0002BD4A14229D8301C00F0F6FAF823FF3372
:103300009C4226D8E208CA4DD300EB18DF689F42E2
:1033100000D1BBE178680323FA68B96898433B1889
:10332000CA609160596801220A43301C5A6000F05B
:10333000DDFA381C083003B03CBC90469946A246E2
:10334000AB46F0BD1024A142D5D90C233360002038
:10335000F1E7630A00D18EE0042B00D93DE1A30917
:1033600038339C465900B24D89006918CF68B9427C
:1033700015D07A6803239A43101B0F2800DD8DE0D7
:1033800000287CDA032007E07A688243131B0F2BA6
:1033900000DD83E0002B72DAFF68B942F4D101222C
:1033A00094442B1C2F6908339F4200D163E1786855
:1033B00003229043021C011B0F2900DD4AE16B61CF
:1033C0002B6100295FDA9B4B984200D90FE1C308BB
:1033D0009A100121DB00EB18914068680A1C99687B
:1033E0000243FB60B9606A609F60CF6061468B10EA
:1033F00001219940914255D811420DD103236046D5
:103400009843031C043349009C46114204D1042311
:1034100049009C441142FAD0032080466246D30002
:103420005B199A46181CE146C768B84207D124E1E7
:10343000002B00DB33E1FF68B84200D11DE17A6860
:1034400043469A43131B0F2BF2DD01213A190C431B
:103450007C60F868BC680835E06019438460EA6005
:10346000AA60301CD56095605160D35000F03EFAE0
:10347000381C08305FE73F227E21944673E7FB68E3
:10348000B968CB609960BA18516801230B43301CAE
:10349000536000F02BFA381C08304CE70120404202
:1034A00084447CE7AF680323786898438146A04250
:1034B00003D3031B0F2B00DD81E05F4A5F4B4946BE
:1034C0001B68106879180191E3189346013000D108
:1034D00047E15B495B181B0B1B030093301C0099F1
:1034E00000F0CAFE021C804601325DD0019B83427F
:1034F00000D9EBE053480099026882468B18019985
:103500000360414500D135E15A461268013200D1CD
:1035100043E1019841460A1A9B1851460B60072364
:103520004246134000D104E1D21A08329046464A7E
:10353000D31A0098021C42441205120D9A1A111C4B
:10354000301C934600F098FE411C00D121E1424618
:10355000801A584401231843524611680B1C5B44DF
:103560004146A96013604860AF4213D04A460F2A13
:1035700000D8E9E04A46786807210C3A8A430121DD
:103580000140114379600520B918486088600F2A0E
:1035900000D906E12D4A1068834200D913602C4AF5
:1035A00011688B4200D91360AF6803237A689A438D
:1035B000131B944200D9AEE00F2B00DCABE00122DC
:1035C000211C11433C1913437960301CAC606360CB
:1035D00000F08CF9381C0830ADE6142B6ED9542B52
:1035E00000D99DE0230B6E339C465900BBE6430A8D
:1035F000042B67D9142B00D9B6E0191C5B314800A5
:103600008000401983688146834200D194E0032101
:1036100088465968404681438A4202D29B68994550
:10362000F7D1D9686A68F960BB608F60DF60DDE65A
:10363000B8040020FF010000C40800201009002089
:103640000F10000014090020081000000C090020D1
:103650000809002001203A19044308437C606A618C
:103660002A615060D3609360301C515000F03EF9E5
:10367000381C08305FE66A68B8E601229144434688
:103680004A460830134200D0CEE62CE03B1C7F694E
:10369000023208339446BB4200D182E63AE6BA18B9
:1036A0005068012303435360FB68BA68301CD36041
:1036B0009A6000F01BF9381C08303CE65B339C46EE
:1036C000590050E681093831480099E7AF4200D0EF
:1036D0006AE70FE75346186801225242083B9444B8
:1036E0008246984277D1434660460342F2D16B68E6
:1036F0008B436B604900994200D9D3E6002900D181
:10370000D0E6CC46194200D088E604224900944411
:103710001942FAD082E6301C00F0E8F800200AE6F0
:10372000AA225200934214D8E30B77339C465900E7
:1037300019E680235B01FCE68910686801228A4053
:1037400002436A60191C6EE701234B604746002262
:103750002EE7224A934218D8A30C7C339C4659008A
:1037600001E610330093B9E6542B22D8010B6E31D9
:10377000480045E70A0500D0C6E60099AA68081C7B
:10378000484401210143516004E77E23FC219C460B
:10379000E9E5002301209B46DEE6434658460360E8
:1037A000BDE6391C0831301C01F062FC51460B6843
:1037B000F0E6AA2149008B4203D8C10B77314800BB
:1037C0001EE706498B4203D8810C7C31480017E77D
:1037D000FC207E2114E76B688CE7C046540500008E
:1037E000F0B5CCB2830737D0531E002A1FD0027821
:1037F000A2421DD0032505E0002B18D00278013B22
:10380000A24215D001302842F6D1032B11D8002B4B
:103810000DD00278A2420BD0421CC31804E0013242
:10382000511E0978A14203D0101E9842F7D1002002
:10383000F0BDFF2631400E0231430E04074D0E430A
:103840000268074F7240D11991432942DFD1043BEE
:103850000430032BF4D8DAE7131CD6E7808080808D
:10386000FFFEFEFEF0B50F2A35D9031C0B439C0763
:1038700035D1161C103E36093501451910350C1C82
:10388000031C27681F6067685F60A7689F60E76820
:103890001034DF601033AB42F3D1731C1B01C51829
:1038A000C9180F231340032B1BD91C1FA408013474
:1038B000A4000023CE58EE500433A342FAD1ED18F1
:1038C000C91803231A4005D00023CC5CEC54013303
:1038D0009342FAD1F0BD051C002AF5D1FAE7051C88
:1038E000F2E71A1CF8E7C0467047C0467047C0466A
:1038F000C36C70B5041C0D1C002B0AD0AA009A18CA
:10390000106800280ED00368136000220261C260B4
:1039100070BD0421212201F02BFBE064031EEDD1D8
:103920000020F5E70126AE40721D9200201C012107
:1039300001F01EFB0028F3D045608660E5E7C04635
:10394000002906D04A689300C26CD3181A680A602E
:1039500019607047F8B54D4644465F46564698464E
:103960000B69F0B40D1C83468A4699461435002431
:103970002E68013437043F0C5743360C56434744F6
:103980003B0C9E193F04310C3F0C3604F619884657
:1039900040C5A145ECDC00290DD052469268914506
:1039A00010DA4B4604339B00534442465A604B4660
:1039B000013351460B6150463CBC90469946A246A5
:1039C000AB46F8BD5346596858460131FFF790FFA2
:1039D00053461A6951460232041C0C3192000C30D5
:1039E000FFF740FF514649688B005946CA6C514663
:1039F000D3181A68A2460A601960D2E7F8B54F4694
:103A00004646C0B4071C181C0C1C083009219046FF
:103A1000994601F0A3FE01283ADD012500216D0041
:103A20000131A842FBDC381CFFF762FF089B011C38
:103A30004361012303614346092B25DD261C09361A
:103A4000351C44442B78381C303B0A22FFF782FF98
:103A50000135011CA542F5D14346F418083CC14587
:103A60000DDD4B46E5184346ED1A2378381C303BF4
:103A70000A22FFF76FFF0134011CAC42F5D1081C8C
:103A80000CBC90469946F8BD09230A349846E6E7EF
:103A90000021C8E7031C010C0022002901D1030406
:103AA0001022190E01D108321B02190F01D1043264
:103AB0001B01990F01D102329B00002B05DB202056
:103AC000590000D47047501CFCE7101CFAE7C046B0
:103AD0000368011C580708D00020DA0704D49807AF
:103AE00020D49B080B600220704718040022002895
:103AF00001D11B0C1022FF20184201D108321B0AF1
:103B0000180701D104321B09980701D102329B0822
:103B1000D80704D45B082020002BE5D001320B60CD
:103B2000101CE1E75B080B600120DDE710B50C1C01
:103B30000121FFF7DDFE01234461036110BDC04692
:103B4000F0B55F4656464D464446F0B40F691469D9
:103B500085B00E1C151CA74204DA3B1C161C271C42
:103B60000D1C1C1CB3683A19716890469A4200DD1E
:103B70000131FFF7BDFE1421424683468B4493007A
:103B80005B44191C039302905B4600228B4503D2D1
:103B9000039904C39942FCD81435AA46A4001436EC
:103BA000BF0054440096F7190194A5424CD25146E7
:103BB0000D682C04240C1FD0009A5B460025196860
:103BC00040CA0804010C3004000C6043360C08188D
:103BD000664340191D689946290C8919050C491935
:103BE00000040D0C000C0904014302C39742E6D8FF
:103BF00049464D60524615682D0C1FD05B4619682A
:103C00000026009A081C341C1688000C6E433618D7
:103C1000361909043004090C0143196010CA5868A8
:103C2000240C6C430104090C6118360C89199C465C
:103C30000C0C04339742E7D8654669600421019A69
:103C40008A448B445245B2D84346002B0EDD039B79
:103C5000043B1D68002D09D1424603E0043B19686E
:103C6000002902D1013A002AF8D19046029B42462F
:103C7000181C1A6105B03CBC90469946A246AB465A
:103C8000F0BDC046F8B546464F460323C0B4804653
:103C90000E1C141C134036D1A41023D041468D6C49
:103CA000002D39D0002301279946274207D16410FF
:103CB00018D0286800281AD0051C2742F7D04046A3
:103CC000311C2A1CFFF73CFF002E1AD071684246B7
:103CD000D26C8B00D3181968641031601E60061C0A
:103CE000002CE6D1301C0CBC90469946F8BD2A1C2D
:103CF000291C4046FFF724FF4A4628600260051C45
:103D0000DBE7061CD3E70B4A013B9B009A580023D4
:103D1000FFF720FE061CBFE740460121FFF7E8FD44
:103D2000054B424643610123036100239064051C57
:103D30000360B7E75880000071020000F0B54D46FF
:103D4000444656465F46F0B40E1C83B0019030697D
:103D500055114019041CB3680134914649688046E6
:103D60009C4203DD01315B009C42FBDC0198FFF7C4
:103D7000BFFD011C00901431002D08DD0A1C00233A
:103D80000027013380C2AB42FBD19B00C9183269C6
:103D9000331C950014331F224F465D19174027D05E
:103DA0002022D21B94460A1C002118689246B84073
:103DB000014302C202CB6046C1409D42F5D8524643
:103DC0005160002901D04446023401997068009B7B
:103DD000CA6C013C1C618300D3181A6800983260D9
:103DE0001E6003B03CBC90469946A246AB46F0BD6F
:103DF0000A1C02CB02C29D42FBD8E6E710B50B6954
:103E00000469E21A11D19A00143014318318891808
:103E100001E098420BD2043B04391C680A689442C2
:103E2000F7D09442924101231A43101C10BD002286
:103E3000FBE7C046F8B54F464646C0B40C1C071C0D
:103E4000081C111C161CFFF7D9FF051E5DD00028A9
:103E500056DB00256168381CFFF74AFD8446C560C3
:103E60002069231C14338200D21890463269351C15
:103E7000143592005219644691461434002104CB43
:103E800080CD1604360C71183E04360C8E1B120CB5
:103E90003F0C3114D21B52183604360C1114043462
:103EA00012043243261F3260A945E8D89946984546
:103EB00017D9271C40CB35042D0C6D182A14360C4D
:103EC00092192D0411142D0C12042A4304C798458D
:103ED000F0D84946CB4343449B0801339B00E41888
:103EE000261F331C002A04D1043B1A680138002A1B
:103EF000FAD06346186160460CBC90469946F8BDFE
:103F0000231C0125341C1E1CA4E7381C0021FFF7CC
:103F1000EFFC012303614561EEE7C0460E4B0F4AFB
:103F20000B409B1810B5002B02DD191C002010BDA2
:103F30005B421B1500200021132B07DD0122322BD1
:103F400002DC3324E31A9A40101CF0E780221203AB
:103F5000111C19410020EAE70000F07F0000C0FCBE
:103F6000F8B546464F46C0B40769061C1436BF0074
:103F7000F7193C1F25688846281CFFF78BFD202376
:103F80001B1A41460B600A281ADC0B231B1A2A1C39
:103F9000DA401D4991469C460B1C49460B430021C3
:103FA000A64203D2083F39686446E1401530854097
:103FB0000A1C2A43101C191C0CBC90469946F8BDDB
:103FC0000021A64202D23C1C083C2168071C0B3F82
:103FD000002F13D02B23181A0B4BBD402B439C46AC
:103FE0000D1CC54063462B430025B44202D9043C56
:103FF0002568C540B9402A1C0A43DBE702480A1C71
:10400000031C2B43D6E7C0460000F03FF0B501216A
:1040100083B01D1C141CFFF76BFC2B036A00061CED
:104020001B0B570D02D08022520313430193002C27
:104030001AD068460094FFF74BFD002831D1009B51
:10404000019C7361B461634263410224E41A3461E8
:10405000002F14D0194A0899BB181B180B60099A35
:104060003523181A106019E001A8FFF731FD0199F6
:1040700001237161336120300124002FEAD1104BFC
:10408000104AC018A31808999B00F31808605869D3
:10409000FFF700FD6401099B241A1C60301C03B06B
:1040A000F0BD019C20231B1A211C9940009A0B1C77
:1040B0001343C44073610194C4E7C046CDFBFFFFC6
:1040C000CEFBFFFFFFFFFF3FF0B557464E4645468C
:1040D000E0B484B0894602A98046FFF741FF061C80
:1040E0000F1C484603A9FFF73BFF021C0B1C02985C
:1040F000039900920193401A41468246086984461A
:10410000484601696046411A4901514400290CDDC5
:104110000905CD192F1C301C391C01F037FF04B0E4
:104120001CBC90469946A246F0BD019B0905591A50
:104130000191009A019BEEE710B5041E172C09DDD2
:1041400008490748084A094B013C02F089FB002C4A
:10415000F8D110BD064BC4001C1920686168F8E74F
:10416000000000000000F03F0000000000002440BC
:10417000407F0000C046C04670B54E1E11697611E2
:10418000131C013614338D00B6005D198619AB423D
:104190000AD2011C10CB10C19D42FBD8AB1A153BB3
:1041A0009B0801339B00C0180023864202D908C037
:1041B0008642FCD870BDC0460369021C10B514329B
:1041C000481183420FDA9B00D3189A4221D2043B54
:1041D0001868002804D01AE0043B1968002916D199
:1041E0009A42F9D310BD83420EDD1F23194083008C
:1041F000D3180029E9D01C68201CC8408840011C45
:104200000120A142EED1E0E78300D318DDE70120D1
:10421000E8E70020E6E7C0460B1C011C021C30B595
:1042200019430220002900D130BD802109068B42AC
:1042300016D00D4904205C180C498C42F4D90C4D61
:104240005C198C42F0D90B4C590049080320A1425B
:10425000EAD9074C0020A142E6D150425041E3E7A1
:10426000002AE1D0EFE7C0460000F0FFFFFFDF7F4C
:104270000000F07FFFFF0F0038B5074C0023051C3E
:10428000081C236003F034FD431C00D038BD2368B4
:10429000002BFBD02B60F9E74809002002780B784F
:1042A00001300131002A01D09A42F7D0D01A70476C
:1042B0000023C25C0133002AFBD1581E7047C04660
:1042C000F0B556464D4644465F46F0B4936883B019
:1042D00001900D1C90461668002B00D17CE0086808
:1042E000002400218946AB68002C45D01F1C9C424D
:1042F0004BD39022AB89D200134249D029696A6915
:10430000401A834650008218D00F821852109246ED
:10431000621C5A44924554D292468020C000034207
:1043200038D00198111CFEF7D5FF071E57D05A460A
:104330002969FFF797FAAA892B4B13408022134370
:10434000AB8151465B46F818CB1A2F612860696132
:10435000271CAB60A2464946524600F051FF2A682E
:104360004146AB688968101CDB1B50440C1B42465D
:10437000AB602860946026D031687468894608363E
:10438000002CF9D01F1C9C42B3D2271CA246E2E7A6
:10439000BA46E0E7019800F085FF071ED1D10198E9
:1043A000296900F065FE019A0C231360AA89402355
:1043B0001343AB81404600238360436001204042A9
:1043C00003E05246A9E75460002003B03CBC90468D
:1043D0009946A246AB46F0BD53600020F5E701992F
:1043E0000C230B60E2E7C0467FFBFFFFF0B55646AB
:1043F0004D465F464446F0B4AFB00C900B938B89AA
:104400008A469146180604D50969002901D100F0B1
:1044100016FD1EA800230024002583461190139347
:104420001293061C0D940895484603784C46002BC1
:104430001CD0252B02D119E0252B3CD00134237848
:10444000002BF9D14946651A002D0FD013984B4621
:1044500033602B181393129B756001331293072B53
:1044600000DDD1E308360899491908912378002B1B
:1044700001D100F09CFC3F25621C00236D44012704
:1044800091462B707F428022637800250024102102
:104490000397059490460020019520248C464027E0
:1044A0004A460132191C2039582900D926E2CC4D40
:1044B000890069588F464A46A51AC5E70B9D0B9996
:1044C0002D6804310595002D01DB00F00DFC059DE4
:1044D0000B916D420595019D04231D4301951378B1
:1044E000DFE713782B20DCE7019D01231D430195B5
:1044F0001378D6E713780028D3D12020D1E73F25C1
:104500006D442870B74C019D91460D94AD0600D4C2
:10451000E6E00B9A072107328A43141C08340B94F7
:104520001468556806940795019DED0700D4A5E32E
:1045300006990798022201431AD010A8302404706B
:10454000019C43701443019412E0019D9146AD0615
:1045500000D47FE10B9B0722073393431C1C0834D4
:104560000B941C685D6806940795211C0122294361
:10457000039C3F2000236844049403700024039D9F
:10458000002D03DB019D80239D430195002900D070
:1045900083E2039D002D00D07FE25D46002A03D117
:1045A0000198C00700D5A3E3049B039802938342BC
:1045B00000DA02900299631E9C41091902913CE0C5
:1045C0000B9C0B9F3F2025680023684491460437CD
:1045D0000370002D01D100F024FC039C281C002C4A
:1045E00001DA00F010FC0021221CFFF7F9F8002886
:1045F00001D100F036FC401B0490A04200DD049481
:104600003F206844002104780B970391CCE7019D7B
:1046100025430195137844E70B9B0B9C1B680434DE
:1046200014AD3F200B942B70012400236844914665
:1046300003700294049400240394019C02231C4000
:10464000099402D0029C02340294019C84231C40F1
:104650000A9400D072E105980299441A002C00DCFB
:104660006CE1139A129B604F102C24DD1020311C3A
:1046700080465646AA460C9D03E0103C0831102C9B
:1046800016DD4046103201330F60486013921293DA
:10469000072BF2DD281C311C11AAFFF711FE0028A0
:1046A00000D020E2103C139A129B5946102CE8DCF3
:1046B0005546B2460E1CA21801333760746013923F
:1046C0001293072B00DDCDE2083639E19146474CC5
:1046D0003F22019D6A4410700D94AD0600D518E785
:1046E000019DED0600D52FE3019D6D0600D480E30A
:1046F0000B9C00252488079506940B9C04340B948E
:1047000012E73F25019C6D4491462870A40600D510
:10471000F6E2019DED0600D533E3019C640600D46A
:104720002FE30B9D089C2D682C800B9D04350B9569
:104730007AE61378111C6C2B00D11BE3019D6146B6
:104740000D430195ADE6019D3D4301951378A8E623
:104750003F21019D694491460870AD0653D50B9ADF
:10476000072307329A43141C5368126808340B94C9
:1047700006920793002B52DB3F256D442C78069957
:10478000039D0798049501220143F8E60B9B0B9DBE
:104790001B68019C0693043502231C43914610AB11
:1047A00030220B950F4D00201A7078225A70079016
:1047B00001940D9502220699DAE6019D9146AD0617
:1047C00063D50B9B0722073393431C1C08340B94BF
:1047D0001C685D68211C0694079500222943C7E6E2
:1047E00064800000F47E0000D8810000E07E0000BC
:1047F000019C10233F251C436D4401942870019DAA
:104800009146AD06ABD4019DED0600D48EE20B9C23
:10481000236804340693DB1707930B94ACD50698F2
:104820000799002544428D413F210694079569442C
:104830002D23039C0B700699049401222D242943F7
:104840009DE6019C10231C430194019D9146AD06F9
:1048500000D57FE6019DED0600D55BE2019D6D066A
:1048600000D4AEE20B9C00252488079506940B9C8F
:10487000012204340B9406997AE6019C10231C4310
:104880000194019D9146AD069BD4019DED0600D596
:1048900064E2019D6D0600D49FE20B9C00252488F4
:1048A000079506940B9C002204340B9406995FE64E
:1048B000019D41460D4301951378F2E51378551C8F
:1048C0002A2B00D1D7E2191C30390022092900D93E
:1048D000C2E2930001359A186B1E1B7852008A18A9
:1048E000191C30390929F4D9002A00DA96E2191C7A
:1048F000203903922A1C582900D8D8E591463F2236
:104900006A441070002B00D151E214AD01242B70C9
:1049100000231370029404948DE60025191C05955C
:104920003039AB0001325D19531E1B786D006D18D4
:10493000191C30390929F4D90595B3E5139A129B4E
:104940003F246C44217800290AD00121013201332F
:104950003460716013921293072B00DD6AE1083610
:10496000099C002C0BD010A93160023202210133C6
:10497000716013921293072B00DD67E108360A9CE1
:10498000802C00D1BEE0039C0498271A002F31DD53
:10499000BD4C102F24DD10218846311C5646AA46F6
:1049A0000C9D03E0103F0831102F16DD40461032F9
:1049B00001330C60486013921293072BF2DD281C20
:1049C000311C11AAFFF77CFC002800D08BE0103FBF
:1049D000139A129B5946102FE8DC5546B2460E1C1E
:1049E000D21901333460776013921293072B00DDE4
:1049F00014E10836049C0133121935607460139277
:104A00001293072B00DDB5E00836019D6D0735D503
:104A1000059C0298251A002D30DD129B9B4F102D0E
:104A200023DD311CB84610240C9E574603E0103D90
:104A30000831102D16DD95481032013308604C60A6
:104A400013921293072BF2DD301C391C11AAFFF7C9
:104A500037FC002800D09CE1103D139A129B594668
:104A6000102DE8DCBA460E1C474652190133376058
:104A7000756013921293072B00DD2BE1029B059CBE
:104A8000A34200DA231C089DED180895002A00D0E7
:104A90007AE0002312935E46C6E4012A00D1A4E026
:104AA0006B467733022A00D077E0A4460D9C0F2195
:104AB000B046181C069A079B051C081C1040205C79
:104AC0001E071709321C28703A431809031C171CCB
:104AD000681E1F43F0D1069207935B465B1B464658
:104AE0006446049360E5B24651468B8908985A069D
:104AF00001D5012040422FB03CBC90469946A246C9
:104B0000AB46F0BD059C0298271A002F00DC3AE75F
:104B10005D4C102F23DD10218846311C5646AA46D5
:104B20000C9D03E0103F0831102F15DD4046103278
:104B300001330C60486013921293072BF2DD281C9E
:104B4000311C11AAFFF7BCFB0028CCD1103F139AEF
:104B5000129B5946102FE9DC5546B2460E1CD2195D
:104B600001333460776013921293072B00DD12E15A
:104B7000083608E70C98514611AAFFF7A1FB002858
:104B8000B2D1139A5E4640E70C98514611AAFFF73E
:104B900097FB002800D17CE7A6E70720B046A44693
:104BA000191C069A079B071C17405E07D40830376C
:104BB000321C0D1C0F702243D9080B1C141C691EDB
:104BC0001C43F0D101980692079346460B1C64469D
:104BD000291CC00714D5302F78D01D1C0139302373
:104BE0000B705B465B1B0493DEE4079D002D4FD1E9
:104BF000069809284CD86D46031C773530332B7046
:104C00005946491B0491CFE40C98514611AAFFF76D
:104C100057FB002800D067E75E4624E40C98514615
:104C200011AAFFF74DFB002800D05DE7139A129BF5
:104C30005E46DFE60C98514611AAFFF741FB0028BB
:104C400000D051E7139A129B5E4689E60C985146B4
:104C500011AAFFF735FB002800D045E7139A129BF5
:104C60005E468CE60C98514611AAFFF729FB0028F6
:104C700000D039E7139A129B5E4661E60699079DBC
:104C80000222294374E4C046C8810000D881000094
:104C90006B467733A046069C079D1F1C201C291CD1
:104CA0000A22002300F0FAFD30323A70201C0A225A
:104CB0000023291C00F0F2FD021C041C0D1C7B1EAD
:104CC0000A43EAD1069407953D1C44465A46521BB6
:104CD000049269E40C98514611AAFFF7F1FA0028F2
:104CE00000D001E7139AC9E613780B91FFF7D9FBBF
:104CF0006D46773559463023491B2B70049153E498
:104D00000B9D089C2B68E21704351C605A600B95BC
:104D1000FFF78AFB0B980B9C006800210434079175
:104D200006900B940122011CFFF722FC019D0B9CB5
:104D30006D0600D46CE50023E35E0B9D06930435FD
:104D4000DB1707930B9515E50B980B9C006800216A
:104D50000434069007910B94FFF7E6FB0B980B9C2D
:104D6000006800210434079106900B940022011C76
:104D7000FFF7FEFB019D0132254301954B78FFF7BC
:104D800090FB0B9C089D236804341D600B94FFF777
:104D90004BFBBA46A8E60C98514611AAFFF790FAC9
:104DA000002800D0A0E6139A129B5E46EBE513980C
:104DB000002800D198E60C98514611AAFFF780FA16
:104DC00092E60B9D0B9C2D680020043406950790FD
:104DD0000B940122291CFFF7CBFB0B9D0B9C2D682C
:104DE00000200434069507900B940022291CFFF73D
:104DF000BFFB0B9D0B9C2D6800200434069507908B
:104E00000B94FFF791FBFFF753FA3F226A4400230C
:104E1000049014780B970393FFF7C6FB01225242CC
:104E200065E5039B062B00D906230493049CDB4312
:104E3000DB171C4002940B971C4DFFF7FCFB0C98F2
:104E40004021FEF747FA52461060106100281ED03C
:104E500040235361FFF7DDFA2A1C00250395FFF775
:104E600021FB03993F206844002204780B970491AA
:104E70000392FFF799FB0B9B0B991B68043103937B
:104E8000002B0ADB53780B912A1CFFF70AFB0C9CC2
:104E90000C230120236040422DE60B910121494261
:104EA000537803912A1CFFF7FCFAC046087F0000E4
:104EB000F0B54F464646C0B498462B4BA4251B6818
:104EC0006D005C5983B0061C0F1C91460193002CA9
:104ED00044D065681F2D1ADD244B002B02D1012020
:104EE00040421CE0C820400000E000BF041EF6D095
:104EF00000254560A42301985B00C05801992060FB
:104F0000CC50C4235B00E550C6235B00E550002E67
:104F10000AD16B1C0235AD00636000202F5103B035
:104F20000CBC90469946F0BDAB00E3188822484679
:104F30009850C4204000221810680121A94008435D
:104F400010608422520040469850022EE1D1C622C1
:104F50005200A318186801431960DAE71C1C4D348D
:104F6000FF345C51B5E7C046587D000000000000EA
:104F700010B55143FEF7AEF9041E27D0031C083BC1
:104F80005A6803239A43043A242A15D8031C132A87
:104F900005D800221A605A609A60201C10BD0021BA
:104FA0000160416008331B2AF3D98160C160242A63
:104FB00007D0031C1033ECE70021FBF7D5FC201CC5
:104FC000ECE7031C016118334161E2E70020E5E7EB
:104FD000F8B50F1C041CFEF787FC204D204AAB6877
:104FE0005E6803239E43F71BBF183F0B1D4B013F19
:104FF0003F039F4207DD201C0021FFF73DF9AA680F
:105000009319984204D0201CFEF770FC0020F8BDD4
:105010007942201CFFF730F901300DD0AB68F61B48
:10502000012216435E60104B201C1A68D71B1F60BC
:10503000FEF75CFC0120EAE7201C0021FFF71CF9C9
:10504000AB68C21A0F2ADEDD08490968401A064912
:10505000086001210A435A60D5E7C046B804002021
:10506000EF0F0000FF0F000014090020C40800200B
:10507000F0B5474680B4051C0C1E55D0FEF734FC35
:10508000211C083948680127031CBB43CA1854680F
:10509000804603208443201C534CA668964260D06F
:1050A0000026B4464646506037420AD10E68271C97
:1050B000891B9B198E680837BE426BD0CF68F7609A
:1050C000BE601618766801273E4207D11B1860465D
:1050D00000282CD09068D268C26090600122181C11
:1050E000104366464860CB50002E1AD13F48834299
:1050F00029D95A0A042A50D89E09383670008000EF
:105100002018826882424ED003265468B443A342DA
:1051100002D292689042F8D1D368CB608A609960DD
:10512000D160281CFEF7E2FB04BC9046F0BD9068FD
:105130002F4EB042CFD11F43C1608160C8608860EC
:105140004F60CB50EDE7DB08981082406068DB00D1
:1051500002436260E418A368CC608B60A160D960F0
:10516000DFE7C3184046074206D10A68891A8868F3
:105170009B18CA68C260906001221A434A601D4AA7
:10518000A16012689342CCD31B4B281C1968FFF70F
:105190001FFFC6E70126B44693E7142A0CD8161C55
:1051A0005B367000ABE7B6100123B3401E1C63688A
:1051B0001E436660131CB0E7542A03D81E0B6E36DC
:1051C00070009CE7AA204000824203D8DE0B7736AD
:1051D000700094E70948824203D89E0C7C36700028
:1051E0008DE7FC207E268AE7B8040020FF0100003E
:1051F000C0040020C0080020100900205405000051
:10520000F0B588420ED98D18A8420BD28618531ECD
:105210005142002A05D06A18D45C7218D454013B5C
:10522000F9D2F0BD0F2A09D8051C002AF9D00023B5
:10523000CC5CEC5401339342FAD1F2E7031C0B43EC
:105240009C072AD1171C103F3F093E0186191036D2
:105250000C1C031C25681D6065685D60A5689D6069
:10526000E5681034DD601033B342F3D17D1C2D01AD
:105270000F23491913404519032B10D91E1FB608D7
:105280000136B6000023CC58EC500433B342FAD1B7
:105290000324ED18C9182240C7E7051CC7E71A1CEC
:1052A000C3E7C046F0B54D4644465F465646F0B4A7
:1052B000804685B00D1C914600D1DDE02E1C083ED5
:1052C000FEF712FB73684F4603221C1C0B37B346D4
:1052D0009443162F00D976E0102001901027B9458D
:1052E00000D975E0019A944256DAC54832198068AF
:1052F0000390904200D1C3E05168081C8A46012106
:10530000884384469444614648680121084264D039
:1053100000200022D90700D586E033680321F31A64
:105320008C4659689A46634699438C46002A00D1B8
:10533000DFE003998A4200D1DEE061460B19019952
:10534000C018039088426ADBD3689268D3609A6081
:105350005246D36892685646D3609A60221F083638
:10536000242A00D9BBE0331C132A0AD92B685046E3
:1053700083606968C1601B2A00D905E15346103378
:1053800008352A6851461A606868039C5860AD6801
:10539000D3469D604B68351CE21B0F2A2CD8012296
:1053A00013402343584643605C4461680A4362608B
:1053B0004046FEF79BFA281C05B03CBC9046994637
:1053C000A246AB46F0BD07229743019700D486E77B
:1053D0000C2341460B600020EEE703205146814339
:1053E000081C09198C4601998C4593DBD168926899
:1053F0006446D1608A60CFE75846C1190120034056
:105400001F435B465F60131C03438A184B6053685D
:105410000831184350604046FFF72AFEC8E703935F
:1054200003980199884293DA49464046FDF752FFB6
:105430008146002800D1D5E07368021C0121181CA8
:105440008843083A3618B24200D198E0221F242A35
:1054500040D8132A22D84B462A1C1068186051687D
:10546000596092689A604046291CFFF701FE404649
:10547000FEF73CFA48469FE7111CFDF72BFF9BE720
:10548000039A526802920298032290433A1C01192F
:1054900010328C4691420CDA039A3BE729684B465E
:1054A0001960686858601B2A5ED82A1C08330832C5
:1054B000D3E7534BF21960469A60C11B012319438D
:1054C0005160716840460B401F437760FEF70EFA4B
:1054D000281C71E74846291CFFF792FEC3E7291CE8
:1054E000301CFFF78DFE52465368351C039CD34693
:1054F00052E70B19039393E7624613193A1CC0183D
:105500001032039090428ADB50468268C368564648
:10551000D3609A60221F0836242A53D8331C132ADA
:1055200008D9296881606B68C3601B2A4FD853462D
:10553000103308352868186069685960AD689D6047
:105540005346DA19039B2E48D91B01231943826065
:10555000516050464068514603401F4340464F60EB
:10556000FEF7C4F9301C27E7A9684B469960E86844
:10557000D860242A13D02A1C103310326DE75268E9
:1055800003218A43A41807E7AB6850460361E96822
:105590004161242A0DD0534618331035F1E62969AC
:1055A0002A1C196168694B4649461833183248610C
:1055B00053E72A6953468261686951462033C861BE
:1055C0001835DEE6301C291CFFF71AFEB8E7A8687C
:1055D00051460861EB684B61242A08D053461833C2
:1055E0001035A7E74046FEF781F90020E4E6286978
:1055F000514688616A6953462033CA61183599E774
:10560000B804002038B50C1C0968051C002901D01D
:10561000FFF7F8FF281C211CFFF72AFD38BDC04604
:10562000264B70B51B68051E9D423AD0C26C002AFD
:1056300016D0002300269B009958002901D107E0CD
:10564000211C0C68281CFFF713FD002CF8D1EA6C14
:105650000136331E202BEED1281C111CFFF708FD4C
:10566000296C002902D0281CFFF702FDA4235B004F
:10567000E95800290CD0A6235B00EE18B14201D1F5
:1056800006E0211C0C68281CFFF7F2FCA642F8D1AA
:10569000696D002902D0281CFFF7EAFCAB6B002BD8
:1056A00000D170BDEB6B281C9847B8239B00E958CC
:1056B0000029F6D0281CFFF7A5FFF2E738040020E8
:1056C000002934D00123002210B488422CD30124B5
:1056D0002407A14204D2814202D209011B01F8E74A
:1056E000E400A14204D2814202D249005B00F8E703
:1056F000884201D3401A1A434C08A04202D3001B2F
:105700005C0822438C08A04202D3001B9C08224361
:10571000CC08A04202D3001BDC082243002803D09F
:105720001B0901D00909E3E7101C10BC70470028D1
:1057300001D00020C04307B4024802A140180290E3
:1057400003BDC046D90000000029F0D003B5FFF723
:10575000B9FF0EBC4243891A1847C046002941D000
:1057600010B4041C4C40A44601230022002900D59B
:105770004942002800D5404288422CD30124240706
:10578000A14204D2814202D209011B01F8E7E400E0
:10579000A14204D2814202D249005B00F8E788426C
:1057A00001D3401A1A434C08A04202D3001B5C08E4
:1057B00022438C08A04202D3001B9C082243CC0841
:1057C000A04202D3001BDC082243002803D01B099F
:1057D00001D00909E3E7101C6446002C00D54042C3
:1057E00010BC7047002806D003DB0020C0434008EF
:1057F00001E08020000607B4024802A14018029090
:1058000003BDC046190000000029EBD003B5FFF727
:10581000A7FF0EBC4243891A1847C0467047C046CE
:105820008446101C62468C46191C634600E0C04644
:105830001FB500F097FF002801D40021C8421FBD0A
:1058400010B500F0C7FE4042013010BD10B500F0A9
:1058500089FF002801DB002010BD012010BDC046DB
:1058600010B500F07FFF002801DD002010BD0120F1
:1058700010BDC04610B500F0F7FE002801DC002086
:1058800010BD012010BDC04610B500F0EDFE00288F
:1058900001DA002010BD012010BDC046002B11D13F
:1058A000002A0FD1002900D1002802D00021C943CD
:1058B000081C07B4024802A14018029003BDC0466C
:1058C0005DFFFFFF03B4684601B5029800F022F8BF
:1058D000019B9E4602B00CBC7047C046F0B583B039
:1058E000161C1F1C0090019101F064FE041C0D1C8D
:1058F000221C2B1C301C391C01F03AFE009A019B23
:10590000121A8B410899201C0A604B60291C03B0B5
:10591000F0BDC046F0B583B0141C1D1C0090019171
:1059200002F024F8221C2B1C061C0F1C01F020FE88
:10593000009A019B121A8B410899301C0A604B6037
:10594000391C03B0F0BDC046F8B55F465646444624
:105950004D46F0B40C034D00CE0F610A440F2143B5
:10596000C400180380465800400D8246D80F844674
:105970004046400A530F0343D0006D0D371C834649
:105980005246664500D1A4E0AF1A002F00DC09E1C1
:10599000002A3BD1184300D0EAE0630700D187E03A
:1059A0000F232340042B00D182E0221DA242A441F8
:1059B0006442802309191B040B40371C141C002B64
:1059C00000D17CE0CE4B01359D4200D105E1CD4BAD
:1059D000E40819404807490204430B0B002000214A
:1059E0001B031A0B0B0D6D051B0513436A08C64DEF
:1059F000FF071D4015436D006D08291C3943201C0D
:105A00003CBC90469946A246AB46F8BDBC48854290
:105A1000C3D0802000040343382F00DDF0E01F2FA7
:105A200000DD24E12020C01B1A1C8146824058461C
:105A3000F8400243944658464A469040421E9041E0
:105A4000FB40624602431F1CA21A9442A4416442D6
:105A5000C91B091B141C0B029FD549024F0A002FBA
:105A600000D1C8E0381C01F065FD021C083A1F2A6D
:105A700000DDB5E02821091A201C9740C8400743E3
:105A80009440954200DDB2E0551B691C1F2900DDE2
:105A9000DCE01F22551B3B1C221CAB40CA40AC4023
:105AA000651EAC411343CF401C43391C002574E7ED
:105AB00080231B040B40371C002B00D082E7904B47
:105AC0004807E4080443C9089D4248D009030B0B6A
:105AD00084E7AA1A9446002A00DC98E05046002881
