:020000021000EC
:106000000040002099610100D9610100DB610100BD
:106010000000000000000000000000000000000080
:10602000000000000000000000000000DD61010031
:106030000000000000000000DF610100E1610100DC
:10604000E5610100E7610100E9610100EB61010028
:10605000ED61010000000000417B0100556A010074
:10606000F3610100F5610100F7610100F9610100D0
:10607000FB610100FD610100FF610100016201009F
:10608000036201005D94010007620100000000004E
:10609000A99401000B620100950302000F62010048
:1060A0001162010013620100000000000000000006
:1060B00000000000000000000000000000000000E0
:1060C00010B5064C2378002B07D1054B002B02D0CE
:1060D000044800E000BF0123237010BDD828002031
:1060E000000000008099020008B5084B002B03D087
:1060F0000748084900E000BF07480368002B03D0A9
:10610000064B002B00D0984708BDC0460000000099
:1061100080990200DC280020D42800200000000024
:10612000164B002B00D1144B9D46402292029A1A26
:10613000924600218B460F461348144A121A0AF061
:1061400079FE0F4B002B00D098470E4B002B00D050
:1061500098470020002104000D000D48002802D0BF
:106160000C480CF07DFA0AF087FD2000290001F0B0
:10617000B3FB0AF071FDC04600000800004000209B
:106180000000000000000000D8280020F8300020A7
:1061900061260200F93602000948026803210A4319
:1061A00002600849084A094B9B1A05DD002408597A
:1061B000105104349C42FADB0548804705480047EB
:1061C000240500408C99020000200020D4280020E3
:1061D0002D62010021610100FEE7FEE7FEE7FEE718
:1061E000FEE7FEE7FEE7FEE7FEE7FEE7FEE7FEE787
:1061F000FEE7FEE7FEE7FEE7FEE7FEE7FEE7FEE777
:10620000FEE7FEE7FEE7FEE7FEE7FEE7FEE7FEE766
:10621000FEE7FEE780B500AF024B034A1A60BD46B9
:1062200080BDC046042000200024F40080B500AFEB
:1062300000F01EF8031C002B06D00A4B0A4A1A6015
:106240000A4B802212021A6000F052F8031C002B45
:1062500005D08023DA05C123DB000121D150BD46E2
:1062600080BDC04604050040DFFF07C0186C004039
:1062700080B500AF1A4B1A68FF231340012B2AD1B7
:10628000184B1A680F23134025D1174B1A68F023B7
:10629000134006D1154B1A68F023134001D1012396
:1062A0001AE0114B1A68F0231340102B06D10F4B44
:1062B0001A68F023134001D101230DE00A4B1A683C
:1062C000F0231340302B06D1084B1A68F0231340FB
:1062D00001D1012300E00023181CBD4680BDC0464B
:1062E000E00F00F0E40F00F0E80F00F0EC0F00F01A
:1062F00080B500AF0D4B1A68FF231340012B11D15D
:106300000B4B1A680F2313400CD10A4B1A68F02369
:106310001340402B06D1084B1A68F023134001D1DB
:10632000012300E00023181CBD4680BDE00F00F0F3
:10633000E40F00F0E80F00F0EC0F00F000000000A8
:1063400080B582B000AF021CFB1D1A70FB1D1B78CC
:106350007F2B16D9164AFB1D1B78191C0F230B40E7
:10636000083B9B0806339B00D3185A68FB1D1B781B
:10637000191C03230B40DB00DA40FF2313409B0969
:1063800011E00C4BFA1D127852B29208C032920002
:10639000D258FB1D1B78191C03230B40DB00DA408D
:1063A000FF2313409B09181CBD4602B080BDC046A8
:1063B00000ED00E000E100E080B582B000AF786061
:1063C000A023DB057A68C132FF3292000321D1504D
:1063D000BD4602B080BDC04680B582B000AF7860D7
:1063E000FB1C1970BB1C1A70A023DB05BA1C1278A9
:1063F0001204111CFA1C1278920011437A68C132FF
:10640000FF329200D150BD4602B080BD80B582B04F
:1064100000AF7860A023DA057B6801219940A123B1
:10642000DB00D150BD4602B080BDC04680B582B011
:1064300000AF7860A023DA057B6801219940024B08
:10644000D150BD4602B080BD0C05000080B584B0BF
:1064500000AF78607B680122111C99400B1CFB6027
:10646000A023DA050C4BD2587B68DA400123134095
:10647000BB60BB68002B06D1A023DA05A123DB009B
:10648000F968D15004E0A023DA05044BF968D15033
:10649000BD4604B080BDC046040500000C050000E8
:1064A00080B582B000AF7860A023DA05A223DB00BC
:1064B000D2587B68DA4001231340181CBD4602B055
:1064C00080BDC04670DF7047181CC04671DF704742
:1064D000181CC04672DF7047181CC04673DF704737
:1064E000181CC04674DF7047181CC04675DF704723
:1064F000181CC04676DF7047181CC04677DF70470F
:10650000181CC04678DF7047181CC04679DF7047FA
:10651000181CC0467ADF7047181CC0467BDF7047E6
:10652000181CC0467CDF7047181CC0467DDF7047D2
:10653000181CC0467EDF7047181CC0467FDF7047BE
:10654000181CC04680DF7047181CC04681DF7047AA
:10655000181CC04682DF7047181CC04683DF704796
:10656000181CC04684DF7047181CC046B0DF704757
:10657000181CC046B1DF7047181CC046B2DF704718
:10658000181CC04690DF7047181CC04691DF70474A
:10659000181CC04692DF7047181CC04693DF704736
:1065A000181CC04694DF7047181CC04695DF704722
:1065B000181CC04696DF7047181CC04697DF70470E
:1065C000181CC04698DF7047181CC046A0DF7047F3
:1065D000181CC046A1DF7047181CC046A2DF7047D8
:1065E000181CC046A3DF7047181CC046A4DF7047C4
:1065F000181CC046A5DF7047181CC046A6DF7047B0
:10660000181CC046A7DF7047181CC046A8DF70479B
:10661000181CC046A9DF7047181CC046AADF704787
:10662000181CC04660DF7047181CC04661DF704709
:10663000181CC04662DF7047181CC04663DF7047F5
:10664000181CC04664DF7047181CC04665DF7047E1
:10665000181CC04666DF7047181CC04667DF7047CD
:10666000181CC04668DF7047181CC04669DF7047B9
:10667000181CC04623DF7047181CC04624DF704733
:10668000181CC04625DF7047181CC04626DF70471F
:10669000181CC04627DF7047181CC04628DF70470B
:1066A000181CC04629DF7047181CC0462ADF7047F7
:1066B000181CC0462BDF7047181CC0462CDF7047E3
:1066C000181CC0462DDF7047181CC0462EDF7047CF
:1066D000181CC0462FDF7047181CC04630DF7047BB
:1066E000181CC04631DF7047181CC04632DF7047A7
:1066F000181CC04635DF7047181CC04636DF70478F
:10670000181CC04633DF7047181CC04634DF704782
:10671000181CC04637DF7047181CC04638DF70476A
:10672000181CC04639DF7047181CC0463ADF704756
:10673000181CC0463BDF7047181CC0463CDF704742
:10674000181CC0463DDF7047181CC0463EDF70472E
:10675000181CC0463FDF7047181CC04641DF704719
:10676000181CC04642DF7047181CC04643DF704704
:10677000181CC04640DF7047181CC04644DF7047F5
:10678000181CC04645DF7047181CC04646DF7047DE
:10679000181CC04647DF7047181CC04648DF7047CA
:1067A000181CC04649DF7047181CC0464ADF7047B6
:1067B000181CC0464BDF7047181CC0464CDF7047A2
:1067C000181CC0464DDF7047181CC04651DF70478B
:1067D000181CC04652DF7047181CC04621DF7047A6
:1067E000181CC04620DF7047181CC04622DF7047C7
:1067F000181CC0464EDF7047181CC0464FDF70475C
:10680000181CC04650DF7047181CC04610DF704788
:10681000181CC04611DF7047181CC04612DF7047B5
:10682000181CC04613DF7047181CC04680B582B0E4
:1068300000AF0C4B5B68DB05DB0D7B607B68002BDE
:106840000BD07B68103B3B603B68DBB25BB2181C33
:10685000FFF776FD031CDBB200E00423181CBD46E5
:1068600002B080BD00ED00E080B58CB000AFF860F4
:10687000B9607A60274B181C09F060FE3B1C173387
:1068800000221A70FFF7D2FF031CFB62FB6A012B88
:1068900017D03B1C1733181CFFF718FF031CBB62F3
:1068A000BB6A022B01D172B60BE0BB6A7B627B6ACA
:1068B000002B06D07A6A184B101CB0211A1CFFF767
:1068C000D3FF0A20FFF778FD0A20FFF79FFD012381
:1068D0003B623B6A002BFCD1FB6A012B17D062B6EE
:1068E0003B1C17331B78181CFFF7F4FE031CFB61DD
:1068F000FB69022B0BD0FB69BB61BB69002B06D087
:10690000BA69054B101CBC211A1CFFF7ADFFBD4630
:106910000CB080BD788E02008C8E020080B582B0F3
:1069200000AF021C3960BB1D1A80084B181C09F00F
:1069300005FEBB1D1A8806493B68081C111C1A1C61
:10694000FFF792FFBD4602B080BDC046988E0200A0
:10695000EFBEADDE80B582B000AF154A154B101CFE
:10696000191C04F01FF9021CFB1D1A70124AFB1DB2
:106970001B78101C191C07F0EDFF031C3B603B68E3
:10698000002B11D03B68082B0ED03A680B4B9A4273
:106990000AD03A680A4B9A4206D03A68094B101C52
:1069A000E5211A1CFFF760FFBD4602B080BDC0465E
:1069B00084290020742900200C29002004300000C4
:1069C000013400008C8E020080B582B000AF786088
:1069D000FFF7C0FFBD4602B080BDC04680B584B0A1
:1069E00000AF78600023FB60FFF7B8FE04E03B1CBB
:1069F0000C33181CFFF7BAFEFB68002BF7D00A20F7
:106A0000FFF724FD024B01221A60BD4604B080BD91
:106A10000070004080B500AF0B4AC1239B000121EC
:106A2000D15007200321FFF745FE0720FFF72EFE78
:106A3000054A064B0649D150034AA023DB00012139
:106A4000D150BD4680BDC046007000400405000026
:106A50000880000080B58AB000AF224A80235B0026
:106A60000021D1501F4AA123DB00D358391C1E4AF4
:106A7000081C111C1A1C0AF04BFA3B1C181C09F0CC
:106A80005DFD184AA123DB00D2583B1C26331A8037
:106A9000164A3B1C26331B88101C191C08F09EFF4D
:106AA000031C3B623B6A002B14D03B6A082B11D0BD
:106AB0003A6A0F4B9A420DD03A6A0E4B9A4209D06D
:106AC000396A28231A1CFF320B4B081C111C1A1C94
:106AD000FFF7CAFE034B01225A60FFF743FEBD4693
:106AE0000AB080BD00700040B08E02002429002052
:106AF00004300000013400008C8E020090B591B08B
:106B000000AF7860194C184BBB63FC63184B194CF1
:106B10003B637C63B86BF96B3A6B7B6B09F0EEFD02
:106B2000031C0C1C181C211C10F0BAFF031C0C1CAD
:106B3000BB62FC62391C08310F4ABB6AFC6A081C44
:106B4000111C1A1C231C0AF0E3F97B681B88013313
:106B50009AB27B681A807B681B88181CBD4611B0EE
:106B600090BDC046C046C0460000000000004E4038
:106B700070E20DA545DF913FC48E020090B585B04F
:106B800000AF78601E4A1F4B101C191C04F00AF855
:106B9000021C3B1C0E331A803C1C0C341A4B181C74
:106BA000FFF7ACFF031C2380184B1B685A1C174BC4
:106BB0001A60BB68002B14D0BB68082B11D0BA68D0
:106BC000134B9A420DD0BA68124B9A4209D0B96859
:106BD00056231A1CFF32104B081C111C1A1CFFF7FD
:106BE00043FE0A4B1B68181C032109F07BFD0B1C9C
:106BF0005A1E9341DAB2094B1A70BD4605B090BDDA
:106C00009C2900208C290020F4280020D429002071
:106C100004300000013400008C8E02000A200020A5
:106C200080B584B000AF78600C4B1B78002B11D07E
:106C30000B4A0C4B101C191C03F0B4FF021C3B1C2C
:106C40000E331A80084A3B1C0E331B88101C191C7B
:106C500008F026FFBD4604B080BDC0460A200020D3
:106C6000B4290020A42900202429002080B582B066
:106C700000AF78600B4B1B785A1E9341DBB20122A8
:106C80005340DBB21A1C01231340DAB2054B1A70D1
:106C9000044B1B78044A101C191C08F05BFFBD460E
:106CA00002B080BDD82900202429002080B500AF83
:106CB0000020FFF781FB0020FFF77EFB0020FFF79D
:106CC0007BFBBD4680BDC04680B58AB002AF3C4B61
:106CD0000022009200200621052202F0EBFB031C9B
:106CE000FB61FB69BB61BB69002B08D0B969CF238D
:106CF0005A00344B081C111C1A1CFFF7B5FD324A10
:106D0000324B101C01211A1C02F08CFC031C7B610D
:106D10007B693B613B69002B08D03969D2235A005B
:106D2000284B081C111C1A1CFFF79EFD284A294BF2
:106D3000101C01211A1C02F075FC031C7B617B698D
:106D4000FB60FB68002B08D0F968D7235A001D4B65
:106D5000081C111C1A1CFFF787FD1F4A1F4B101C33
:106D600001211A1C02F05EFC031C7B617B69BB6085
:106D7000BB68002B09D0B968B4231A1CFF32114B31
:106D8000081C111C1A1CFFF76FFD154A154B101C2F
:106D900001211A1C02F046FC031C7B617B697B60AD
:106DA0007B68002B08D07968DC235A00054B081C4F
:106DB000111C1A1CFFF758FDBD4608B080BDC04627
:106DC000DC2900208C8E0200BC290020C96901004A
:106DD000C4290020216C0100C82900206D6C01002D
:106DE000CC290020DD69010080B588B000AF3B1DD3
:106DF0001A780F218A4301210A431A703B1D197822
:106E00000F220A4010210A431A703A1D2E4B101C03
:106E1000191C0C22FFF786FB031CFB61FB69BB619D
:106E2000BB69002B08D0B969E6235A00274B081C20
:106E3000111C1A1CFFF718FD254B181CFFF762FBED
:106E4000031CFB61FB697B617B69002B09D07969BD
:106E5000D0231A1CFF321D4B081C111C1A1CFFF7F3
:106E600003FD3B1C0833181C0021082209F0E2FF37
:106E70003B1C0833C82252001A803B1C0833C8222E
:106E800092005A803B1C083300229A803B1C083336
:106E9000C8225200DA803B1C0833181CFFF73AFB6B
:106EA000031CFB61FB693B613B69002B09D039691D
:106EB000DA231A1CFF32054B081C111C1A1CFFF7A1
:106EC000D3FCBD4608B080BDCC8E02008C8E020083
:106ED0004103000080B594B000AF304B181C09F09E
:106EE0002DFB3B1C0F3306221A703A1C2C4B111C35
:106EF0001A1C0C23081C111C1A1C09F007FF3B1C50
:106F00001033181C0021382209F094FF3B1C103369
:106F100002221A703B1C103301229A703B1C103362
:106F200001229A803B1C10333A1C0F329A603B1CA2
:106F3000103303221A833B1C10333A1CDA613B1CCA
:106F40001033181C002103F053FA031CFB64FB6C84
:106F5000BB64BB6C002B09D0B96CFC231A1CFF323C
:106F6000104B081C111C1A1CFFF77EFC0E4B181C42
:106F70000021142209F05EFF0B4B00221A700A4B0D
:106F800000225A60084B00221A72074B28221A82EC
:106F9000054BB4225A82BD4614B080BDDC8E02007F
:106FA000F88E02008C8E0200F828002080B5A0B078
:106FB00000AF914B181C09F0C1FAFB1D03221A7097
:106FC0003B1C5C33181C0021142209F033FF3B1CCE
:106FD0005C3300221A603B1C5C3301221A713B1C9B
:106FE0005C33FA1D9A603B1C5C331A7B0F218A4389
:106FF00001210A431A733B1C5C33197B0F220A40A0
:1070000010210A431A733B1C5C335A7B0F218A43BD
:107010005A733B1C5C33597B0F220A405A733B1C4A
:107020005C339A7B0F218A439A733B1C5C33997BB8
:107030000F220A409A733B1C5C33DA7B0F218A4390
:1070400001210A43DA733B1C5C33D97B0F220A40CF
:1070500010210A43DA733B1C5C331A7C0F218A43EC
:107060001A743B1C5C33197C0F220A401A74634A61
:107070003B1C5C33101C191C08F054FC031CFB6700
:10708000FB6FBB67BB6F002B07D0B96F5C4A5D4BD2
:10709000081C111C1A1CFFF7E7FB3B1C4833181C8B
:1070A0000021142209F0C6FE3B1C48335A7B0F21F5
:1070B0008A4301210A435A733B1C4833597B0F22F0
:1070C0000A4010210A435A733B1C48339A7B0F2114
:1070D0008A4301210A439A733B1C4833997B0F2250
:1070E0000A4010210A439A733B1C4833DA7B0F2174
:1070F0008A43DA733B1C4833D97B0F220A40DA7388
:107100003B1C48331A7C0F218A4301210A431A741D
:107110003B1C4833197C0F220A4010210A431A7481
:107120003B1C483300221A603B1C483301221A7171
:107130003B1C483300229A603B1C483364221A737C
:10714000314A3B1C4833101C191C07F0C9FB031CB7
:10715000FB67FB6F7B677B6F002B08D0796F9823F1
:107160009A00284B081C111C1A1CFFF77DFB3B1CC6
:107170000833181C0021402209F05CFE3A1C08323A
:10718000224B101C191C08F0A5FD3A1C08323C23A8
:10719000D15C0F20814301200143D1543A1C0832B5
:1071A0003C23D05C0F21014010200143D1543A1CF4
:1071B00008323D23D15C0F208143D1543A1C083260
:1071C0003D23D05C0F210140D1543B1C0833181CD7
:1071D00007F0DAFE031CFB67FB6F3B673B6F002B7E
:1071E00007D0396F0A4A074B081C111C1A1CFFF7FD
:1071F0003BFBBD4620B080BD048F02002429002047
:107200004E0200008C8E02000C2900201C8F020010
:107210006B02000080B500AF1B4B51221A601A4B65
:1072200064225A60184B01229A60174B01221A738C
:10723000164A154B101C191C03F098FC144B8C2299
:107240001A60134B134A5A60114B0A229A60104B72
:1072500000221A73104A0E4B101C191C03F086FCF6
:107260000E4B64221A600D4B0A4A5A600B4B0122E6
:107270009A600A4B00221A73094A084B101C191C09
:1072800003F074FCBD4680BD7429002084290020D1
:107290008C290020DC0500009C290020A429002066
:1072A000B429002080B586B000AF324B1A68802325
:1072B0005B02101C191C002202F02CFA031C7B61DB
:1072C0007B693B613B69002B07D039692A4A2B4B0C
:1072D000081C111C1A1CFFF7C7FA294B1A68294B06
:1072E000101C191C002202F015FA031C7B617B693B
:1072F000FB60FB68002B07D0F968234A1F4B081C72
:10730000111C1A1CFFF7B0FA204B1A68A0239B022D
:10731000101C191C002202F0FDF9031C7B617B6923
:10732000BB60BB68002B08D0B968AB239A00134B35
:10733000081C111C1A1CFFF797FA154B1A688023BA
:107340001B02101C191C002202F0E4F9031C7B61D3
:107350007B697B607B68002B08D07968AC239A003E
:10736000064B081C111C1A1CFFF77EFABD4606B01E
:1073700080BDC046BC290020A30200008C8E020004
:10738000C429002066260000A9020000C8290020A8
:10739000CC29002080B584B000AF3B1C181C04F041
:1073A0004FFE031CFB60FB68BB60BB68002B07D073
:1073B000B968134A134B081C111C1A1CFFF754FA26
:1073C0003B68002B03D0104B01221A7015E00F4BC5
:1073D000181CFFF783F8031CFB60FB687B607B686D
:1073E000002B07D079680A4A064B081C111C1A1C8E
:1073F000FFF73AFA0020FFF709F8BD4604B080BD58
:10740000BE0200008C8E0200D1290020F828002046
:10741000C702000080B584B000AF78607B681B783D
:10742000002B14D10B4B1B88181C3B21FFF762F873
:10743000031CFB60FB68BB60BB68002B07D0B9680E
:10744000054A064B081C111C1A1CFFF70DFABD4615
:1074500004B080BD08200020DE0200008C8E0200F7
:1074600080B582B000AF78607968054A054B081C8A
:10747000111C1A1CFFF7F8F9BD4602B080BDC046CA
:10748000E90200008C8E020080B58AB000AF3B1D7F
:10749000181C00211C2209F0CDFC3B1D00221A60A3
:1074A0003B1DA02292025A603B1DF02212039A60FB
:1074B0003B1D03221A73124B9A893B1DDA813B1D37
:1074C00000221A743B1D0F4A5A613B1D0E4A9A61F5
:1074D0003B1D181C03F072F9031C7B627B6A3B6244
:1074E0003B6A002B08D0396AC0239A00074B081C5E
:1074F000111C1A1CFFF7B8F9BD460AB080BDC04682
:107500002429002015740100617401008C8E020092
:1075100080B584B000AF78607B681B88112B12D0D7
:10752000192B1AD0102B36D11F4B181C09F006F856
:107530000020FEF76BFF0020FEF778FF7B689A883B
:107540001A4B1A802CE01A4B181C08F0F7FF002089
:10755000FEF76CFFFFF71EFF22E0164B181C08F029
:10756000EDFF7B689B79002B14D10020FEF75EFFB6
:10757000FFF7CCF8031CFB60FB68BB60BB68002B0B
:1075800008D0B9680C4A0D4B081C111C1A1CFFF7D7
:107590006BF905E004E00A4B181C08F0CFFFC04669
:1075A000BD4604B080BDC046308F020008200020D8
:1075B000408F0200548F0200260300008C8E0200D0
:1075C000648F020080B582B000AF78607B68023BB8
:1075D000012B0AD8074B1B78002B05D0054B002246
:1075E0001A70FFF7D7FE01E000E0C046BD4602B0CA
:1075F00080BDC046D129002080B582B000AF786040
:107600007B68181C06F0ECFA0B4A7B68101C191CEE
:1076100007F056FF094A7B68101C191C06F0DAFFB8
:107620007B68181C03F028FA7B68181CFFF770FFB2
:10763000BD4602B080BDC046242900200C29002090
:1076400080B582B000AF78607B68181C03F02CFD19
:107650007B68181CFFF7B6FFBD4602B080BDC04670
:1076600080B588B000AF314B0020191C5022002398
:1076700008F00EFE031CFB61FB69BB61BB69002BBC
:1076800008D0B969DD239A00294B081C111C1A1C6B
:10769000FFF7EAF83B1D181C0021012209F0CAFB84
:1076A0003B1D1A7801218A431A703B1D181CFEF7F6
:1076B000B9FF031C7B617B693B613B69002B08D0F0
:1076C0003969DF239A001A4B081C111C1A1CFFF79A
:1076D000CBF8184B181C08F035FE031C7B617B6946
:1076E000FB60FB68002B07D0F968134A104B081C9D
:1076F000111C1A1CFFF7B8F8104B181C08F036FEC6
:10770000031C7B617B69BB60BB68002B07D0B96839
:107710000B4A074B081C111C1A1CFFF7A5F8094B54
:10772000181C08F00BFFBD4608B080BD942C00204B
:107730008C8E0200F9750100810300004176010082
:1077400085030000748F020080B500AF0120002186
:107750000322FEF741FE0E2000210322FEF73CFE2D
:10776000BD4680BD80B586B000AFF860B9607A6074
:107770007B687B617B69002B07D07969054A064BE2
:10778000081C111C1A1CFFF76FF80023181CBD46BB
:1077900006B080BDA10300008C8E020080B588B0C9
:1077A00000AF03F0DDFF031CFB61FB69BB61BB693C
:1077B000002B08D0B969EC239A00344B081C111C2B
:1077C0001A1CFFF751F80E20FEF76AFE031C5A42FE
:1077D0005341DAB23B1C0C331A703B1C0C33181C9F
:1077E00005F09CFA031CFB61FB697B617B69002B44
:1077F00007D07969264A254B081C111C1A1CFFF773
:1078000033F83B1C0633181C0021062209F012FB3A
:107810003B1C1E22DA803B1C1A7A01210A431A7291
:107820003B1C1A7A02218A431A723B1C1A7A1C21C9
:107830008A430C210A431A723B1C1A7A20218A437C
:107840001A723B1C07225A723B1C10229A723B1C74
:10785000104A1A603B1C01221A710F4A3B1C101C73
:10786000191C05F011FB031CFB61FB693B613B69C3
:10787000002B07D03969094A044B081C111C1A1C3B
:10788000FEF7F2FFBD4608B080BDC0468C8E0200F8
:10789000B603000065770100D0290020C503000071
:1078A00080B582B000AFFEF765FF031C7B607B688C
:1078B0003B603B68002B07D03968054A054B081C24
:1078C000111C1A1CFEF7D0FFBD4602B080BDC04699
:1078D000CE0300008C8E020080B582B002AF144B44
:1078E000B4221A80002300930020172100221623BF
:1078F00008F04CFEFFF7DAF9FFF726FFFFF7E4F98F
:10790000FFF7AEFEFFF74AFFFFF76EFAFFF7E2FA66
:10791000FFF74CFBFFF77EFCFFF7B6FDFFF7C2FC5D
:10792000FFF738FDFFF776F8FFF7BAFFFCE7C04630
:10793000F4280020C046C04680B582B000AF021CCB
:10794000FB1D1A70064BFA1D1278111C1F220A40EB
:107950000121081C9040021C1A60BD4602B080BD87
:1079600000E100E080B582B000AF021CFB1D1A7080
:10797000084AFB1D1B78191C1F230B400121081C02
:107980009840031C191CC0235B00D150BD4602B0B7
:1079900080BDC04600E100E0B0B582B000AF021C7F
:1079A0003960FB1D1A70FB1D1B787F2B32D93049C3
:1079B000FB1D1B781A1C0F231340083B98082C4A08
:1079C000FB1D1B781C1C0F232340083B9B08063320
:1079D0009B00D3185B68FA1D1278141C0322224006
:1079E000D200FF24251C95402A1CD2431A403B6834
:1079F0009C01FF231C40FB1D1B781D1C03232B40F7
:107A0000DB00251C9D402B1C1A43831D9B00CB18BB
:107A10005A6029E0174BFA1D127852B292081549A4
:107A2000F81D007840B28008C03080004158F81D31
:107A30000078041C03202040C000FF24251C854042
:107A4000281CC043084039688C01FF210C40F91DF7
:107A500009780D1C03212940C900251C8D40291CD3
:107A60000143C0329200D150BD4602B0B0BDC04605
:107A700000ED00E000E100E080B582B000AF78608A
:107A80007A68032313405A425341DBB2181CBD46A7
:107A900002B080BD80B586B000AF78603960002349
:107AA0007B6145E07B690122111C99400B1CFB6046
:107AB0003B68FA68134038D07B68DB68FA6813408B
:107AC00009D180239B023B617B68DA68FB681A431B
:107AD0007B68DA6009E0C0239B023B617B68DB685E
:107AE000FA68D2431A407B68DA60A023DB05A02243
:107AF000D2057969C131FF31890089580F4A114097
:107B00007A69C132FF329200D150A023DB05A02256
:107B1000D2057969C131FF31890089583A69114329
:107B20007A69C132FF329200D1507B6901337B61A7
:107B30007B691F2BB6D9BD4606B080BDFFFFFCFF99
:107B400080B588B000AFA023DA05A223DB00D358AC
:107B5000BB613E4ABE235B000021D1503B1C1F335A
:107B600000221A7068E03A4B19683B1C1F331A78E0
:107B7000131C9B009B189B00CB183B613B1C1F33C5
:107B80001B780122111C99400B1C1A1C314B1B68DD
:107B900013404AD03B69DB68DA43BB695A403B6912
:107BA0001B6813407B613A697B69101C191CFFF745
:107BB00071FFA023DA05A223DB00D258BB69534032
:107BC000FB60FB68002B16D0BA69FB681343BB61EE
:107BD0003B69DB68DA43BB695A403B691B68134069
:107BE000BB603A69BB68101C191CFFF753FF7A6928
:107BF000BB6813437B61BB69DA433B699B681340F5
:107C00007A6913407B603B695B68BA6913407A69A3
:107C100013403B603A687B68134306D03B691B699D
:107C200039687A68081C111C98473B1C1F331A7866
:107C30003B1C1F3301321A70074B1B783A1C1F3252
:107C400012789A428FD3BD4608B080BD00600040D4
:107C5000EC2C0020E42C0020E92C002080B584B01E
:107C600000AF021CFB1D1A700023FB6031E01C4BAF
:107C70001968FB1D1A78131C9B009B189B00CB18DE
:107C80001B68FA680121081C9040021C13401DD09B
:107C9000A023DB05A022D205F968C131FF3189009C
:107CA0008958104A1140FA68C132FF329200D1500F
:107CB000A023DB05A022D205F968C131FF3189007C
:107CC0008958FA68C132FF329200D150FB68013303
:107CD000FB60FB681F2BCAD9BD4604B080BDC046FF
:107CE000EC2C0020FFFFFCFF80B582B000AF021C2F
:107CF0003960FB1D1A703B68002B01D1072337E068
:107D00003B68181CFFF7B8FE031C01225340DBB28E
:107D1000002B01D007232BE0174B3A681A60174B52
:107D2000FA1D12781A70164B00221A70154B002299
:107D30001A60114B1968114B1B781A1C131C9B00FD
:107D40009B189B00081C00211A1C09F073F80E4AAE
:107D5000C2239B0001214942D1500620FFF702FEB9
:107D600006200121FFF718FE0620FFF7E5FD00239E
:107D7000181CBD4602B080BDEC2C0020E82C002071
:107D8000E92C0020E42C00200060004080B584B085
:107D900000AFF860B9607A603B602B4B1B68002B2A
:107DA00001D108234CE03B68002B01D1072347E0B9
:107DB000264B1A78264B1B789A4201D304233FE0C6
:107DC000214B1968214B1B781A1C131C9B009B1814
:107DD0009B00CB18B9687A680A431A601A4B196875
:107DE0001A4B1B781A1C131C9B009B189B00CB186A
:107DF000BA685A60144B1968144B1B781A1C131C70
:107E00009B009B189B00CB187A689A600E4B1968F0
:107E10000E4B1B781A1C131C9B009B189B00CB1845
:107E20003A681A61094B1B785A1CD1B2074A117083
:107E3000FA681370FB681B78181CFFF70FFF00230C
:107E4000181CBD4604B080BDEC2C0020E92C00209D
:107E5000E82C002080B586B000AF021CFB1D1A7014
:107E60004D4B1B68002B01D1082391E04B4B1B7835
:107E7000FA1D12789A4201D3072389E0484ABE23AB
:107E80005B000021D150A023DA05A223DB00D358E8
:107E9000FB60444B1B68002B05D1414AC1239B006A
:107EA00080210906D150FB1D1B780122111C99402D
:107EB0000B1C1A1C3B4B1B681A433A4B1A60364B7F
:107EC0001968FB1D1A78131C9B009B189B00CB188C
:107ED0000022DA6000237B6156E07B690122111CDD
:107EE00099400B1CBB602C4B1968FB1D1A78131CA6
:107EF0009B009B189B00CB181B68BA68134040D0AE
:107F0000FB68BA68134003D0C0239B023B6118E0B2
:107F100080239B023B61204B1968FB1D1A78131CC0
:107F20009B009B189B00CA181B4B1868FB1D1978F7
:107F30000B1C9B005B189B00C318D968BB680B43E4
:107F4000D360A023DB05A022D2057969C131FF31BE
:107F500089008958144A11407A69C132FF3292006F
:107F6000D150A023DB05A022D2057969C131FF31B0
:107F7000890089583A6911437A69C132FF32920007
:107F8000D1507B6901337B617B691F2BA5D900230D
:107F9000181CBD4606B080BDEC2C0020E92C00204A
:107FA00000600040E42C0020FFFFFCFF80B582B0A1
:107FB00000AF021CFB1D1A70164B1B68002B01D171
:107FC000082323E0144B1B78FA1D12789A4201D340
:107FD00007231BE0FB1D1B78181CFFF73FFEFB1D52
:107FE0001B780122111C99400B1CDA430B4B1B68B8
:107FF0001A400A4B1A60094B1B68002B05D1084A2E
:10800000C2239B0080210906D1500023181CBD46C5
:1080100002B080BDEC2C0020E92C0020E42C0020D4
:108020000060004080B584B000AF021C3960FB1DC9
:108030001A70134B1B68002B01D108231CE0114B55
:108040001B78FA1D12789A4201D3072314E00C4BD7
:108050001968FB1D1A78131C9B009B189B00CB18FA
:10806000FB60A023DA05A223DB00D258FB681B6863
:108070001A403B681A600023181CBD4604B080BD3E
:10808000EC2C0020E92C002080B582B000AF786095
:108090000A1CFB1C1A70A023DB05FA1C1278920044
:1080A000111C7A68C132FF329200D150BD4602B035
:1080B00080BDC04690B585B000AF786039601C4B7C
:1080C0001B68002B1BD01A4B1C687B6859687B68A7
:1080D0001A783B68DBB2081C111C1A1CA047031C51
:1080E000FB60FB68BB60BB68002B07D0BA68114B14
:1080F000101C28211A1CFEF7B7FB15E014E03B68A2
:10810000012B07D17B685B687A681278101C01210B
:10811000984709E03B68002B06D17B685B687A686A
:108120001278101C00219847BD4605B090BDC0468E
:10813000FC2C00208C8F020080B586B000AF7860E8
:10814000324B1A783B1C0833101C191CFFF76AFFCE
:10815000031C3B613B69002B55D13B1C17330022AC
:108160001A7049E02A4B1A683B1C17331B78DB0056
:10817000D318FB60274B1B68FA6812780121081C92
:108180009040021C134013D0FB685B68002B0FD09B
:10819000FB685B78012B05D1FB68181C0021FFF7F9
:1081A00089FF22E0FB68181C0121FFF783FF1CE018
:1081B000184B5B68FA6812780121081C9040021C79
:1081C000134012D0FB685B68002B0ED0FB685B7815
:1081D000012B05D1FB68181C0121FFF76BFF04E0A0
:1081E000FB68181C0021FFF765FF3B1C17331A784A
:1081F0003B1C173301321A70074B1B783A1C17329D
:1082000012789A42AED3BD4606B080BD002D002044
:10821000F02C0020082D0020F42C002080B584B024
:1082200000AF78603960114B1B68181C01F0B8FA78
:10823000031CFB60FB68002B00D013E00C4B7A683A
:108240005A600B4B3A681A60084B1968094B1A6858
:1082500078683B680343081C111C1A1C01F05AFA89
:10826000031CFB60BD4604B080BDC046042D002049
:10827000082D0020F82C002080B588B000AFF860F1
:108280007A603B603B1C0B330A1C1A707B68042B22
:1082900001D8072347E0264BFA681A60254B3A1CA1
:1082A0000B3212781A70244B7A681A60234B3A68A2
:1082B0001A600023FB6118E03B1C0B331B78DB00CA
:1082C000FA68D318BB61BB691B781A1CBB699B7821
:1082D000101C191CFFF7D8FEBB691B780122111C6A
:1082E00099400B1CFA691343FB613B1C0B331B7851
:1082F0003A1C0B32591E1170002BDDD11048F96960
:10830000FA69104BFFF742FD031C7B617B69002B70
:1083100001D07B6907E00C4A0C4B101C00211A1C91
:1083200001F080F9031C181CBD4608B080BDC04692
:10833000F02C0020F42C0020F82C0020FC2C002035
:10834000002D00201D820100042D00203981010034
:1083500080B500AF074B1B68002B01D1082305E057
:10836000054B1B78181CFFF775FD031C181CBD4638
:1083700080BDC046F02C0020002D002080B582B0CA
:1083800000AF0E4B1B68002B01D1082311E00C4BF2
:108390001B78181CFFF70AFE031C7B607B68002B10
:1083A00001D07B6805E0074B1B68181C01F0F8F949
:1083B000031C181CBD4602B080BDC046F02C002036
:1083C000002D0020042D002080B586B000AF021CD7
:1083D0003960FB1D1A70274B1B78FA1D12789A42E0
:1083E00001D9072341E0244B1A68FB1D1B78DB00F1
:1083F000D3187B61204B1B68002B01D1082334E08C
:108400001E4B1A783B1C0C33101C191CFFF70AFE7C
:10841000031C3B613B69002B01D03B6925E07B6974
:108420005B78002B0ED1FA687B691B78DA40012358
:10843000134003D03B6800221A7015E03B6801220C
:108440001A7011E07B695B78012B0DD1FA687B69AA
:108450001B78DA400123134003D03B6801221A70D5
:1084600002E03B6800221A700023181CBD4606B0CB
:1084700080BDC046F42C0020F02C0020002D0020F0
:1084800080B582B000AF78607A68032313405A4207
:108490005341DBB2181CBD4602B080BD80B582B02E
:1084A00000AF021CFB1D1A70064BFA1D1278111C3E
:1084B0001F220A400121081C9040021C1A60BD4680
:1084C00002B080BD00E100E080B582B000AF021CC8
:1084D000FB1D1A70074AFB1D1B78191C1F230B403C
:1084E0000121081C9840031C191C8023D150BD4653
:1084F00002B080BD00E100E080B582B000AF021C98
:10850000FB1D1A70084AFB1D1B78191C1F230B400A
:108510000121081C9840031C191C80235B00D150CA
:10852000BD4602B080BDC04600E100E080B582B02B
:1085300000AF021CFB1D1A70084AFB1D1B78191C9A
:108540001F230B400121081C9840031C191CC02349
:108550005B00D150BD4602B080BDC04600E100E0E6
:10856000B0B582B000AF021C3960FB1D1A70FB1D54
:108570001B787F2B32D93049FB1D1B781A1C0F2327
:108580001340083B98082C4AFB1D1B781C1C0F232A
:108590002340083B9B0806339B00D3185B68FA1DF9
:1085A0001278141C03222240D200FF24251C95407F
:1085B0002A1CD2431A403B689C01FF231C40FB1D30
:1085C0001B781D1C03232B40DB00251C9D402B1C0E
:1085D0001A43831D9B00CB185A6029E0174BFA1DE4
:1085E000127852B292081549F81D007840B28008FE
:1085F000C03080004158F81D0078041C0320204042
:10860000C000FF24251C8540281CC0430840396851
:108610008C01FF210C40F91D09780D1C0321294014
:10862000C900251C8D40291C0143C0329200D15045
:10863000BD4602B0B0BDC04600ED00E000E100E084
:1086400080B582B000AF021CFB1D1A70FB1D1B78A9
:108650007F2B16D9164AFB1D1B78191C0F230B40C4
:10866000083B9B0806339B00D3185A68FB1D1B78F8
:10867000191C03230B40DB00DA40FF2313409B0946
:1086800011E00C4BFA1D127852B29208C0329200DF
:10869000D258FB1D1B78191C03230B40DB00DA406A
:1086A000FF2313409B09181CBD4602B080BDC04685
:1086B00000ED00E000E100E023DF7047181CC04639
:1086C00024DF7047181CC04625DF7047181CC046C1
:1086D00026DF7047181CC04627DF7047181CC046AD
:1086E00028DF7047181CC04629DF7047181CC04699
:1086F0002ADF7047181CC0462BDF7047181CC04685
:108700002CDF7047181CC0462DDF7047181CC04670
:108710002EDF7047181CC0462FDF7047181CC0465C
:1087200030DF7047181CC04631DF7047181CC04648
:1087300032DF7047181CC04635DF7047181CC04632
:1087400036DF7047181CC04633DF7047181CC04620
:1087500034DF7047181CC04637DF7047181CC0460E
:1087600038DF7047181CC04639DF7047181CC046F8
:108770003ADF7047181CC0463BDF7047181CC046E4
:108780003CDF7047181CC0463DDF7047181CC046D0
:108790003EDF7047181CC0463FDF7047181CC046BC
:1087A00041DF7047181CC04642DF7047181CC046A6
:1087B00043DF7047181CC04640DF7047181CC04696
:1087C00044DF7047181CC04645DF7047181CC04680
:1087D00046DF7047181CC04647DF7047181CC0466C
:1087E00048DF7047181CC04649DF7047181CC04658
:1087F0004ADF7047181CC0464BDF7047181CC04644
:108800004CDF7047181CC0464DDF7047181CC0462F
:1088100051DF7047181CC04652DF7047181CC04615
:1088200021DF7047181CC04620DF7047181CC04667
:1088300022DF7047181CC0464EDF7047181CC04628
:108840004FDF7047181CC04650DF7047181CC046E9
:1088500080B582B000AF7860C046C046C046C04612
:10886000C046C046C046C046C046C046C046C046D8
:10887000C046C0467B68013B7B60002BECD1BD4607
:1088800002B080BD80B582B000AF0C4B5B68DB05E9
:10889000DB0D7B607B68002B0BD07B68103B3B6063
:1088A0003B68DBB25BB2181CFFF7CAFE031CDBB2ED
:1088B00000E00423181CBD4602B080BD00ED00E0BE
:1088C00080B582B000AF7860054AA123DB007968EB
:1088D000D15011200321FFF743FEBD4602B080BDF9
:1088E0000010014080B500AF0E4AD1239B008021CB
:1088F0004902D1500B4AC1239B0080214902D1502B
:108900001120FFF713FE1120FFF7C8FD054B0122D0
:108910001A602F20FFF79CFF034B01221A70BD46FF
:1089200080BDC04600100140382D002080B500AF4A
:108930001120FFF7C9FD104AD2239B008021490274
:10894000D1500D4AC2239B0080214902D1500A4BCD
:1089500001225A602F20FFF77BFF074B01229A600C
:10896000064B00221A602F20FFF772FF044B0022F3
:108970001A70BD4680BDC04600100140242D002065
:10898000382D002080B500AF024A034BD358181C85
:10899000BD4680BD001001400405000080B582B0D6
:1089A00000AF786039607A683B68D31A1B021B0AF3
:1089B000181CBD4602B080BD80B582B000AF7860A3
:1089C000034AA823DB007968D150BD4602B080BDC0
:1089D0000010014080B586B000AF78604C4B19683C
:1089E0007A68131CDB009B189B00CB18BB60494BBB
:1089F0001B68013303D1474B7A681A6084E0BB6877
:108A00005968434B1868434B1A68131CDB009B18CA
:108A10009B00C3185B6899421ED83D4B19683D4BBB
:108A20001A68131CDB009B189B00CA18384B186887
:108A3000384B19680B1CDB005B189B00C318596886
:108A4000BB685B68CB1A5360324B1A68BB681A620A
:108A5000304B7A681A6057E0BB685B68FB602D4B4F
:108A60001B687B612B4B1B683B6117E0284B196827
:108A70003A69131CDB009B189B00CB185B68FA68F3
:108A8000D31AFB603B697B61214B19683A69131C5F
:108A9000DB009B189B00CB181B6A3B613B690133D1
:108AA0000BD01B4B19683A69131CDB009B189B0009
:108AB000CB185A68FB689A42D8D33B69013313D06C
:108AC000134B19683A69131CDB009B189B00CA18EA
:108AD0000F4B186839690B1CDB005B189B00C3182F
:108AE0005968FB68CB1A5360BB68FA685A60BB6868
:108AF0003A691A62064B19687A69131CDB009B18E5
:108B00009B00CB187A681A62BD4606B080BDC0468D
:108B1000142D0020202D002080B586B000AF786095
:108B2000394B1B687B617B693B6110E03A697B686C
:108B30009A4200D10EE03B697B61344B19683A6977
:108B4000131CDB009B189B00CB181B6A3B613B6925
:108B50000133EBD13B69013300D152E07A693B69C3
:108B60009A4211D1294B1968274B1A68131CDB0054
:108B70009B189B00CB181A6A234B1A60224B1B6868
:108B8000013301D1FFF7D2FE204B19683A69131C5B
:108B9000DB009B189B00CB185B68FB601B4B1968C4
:108BA0007A69131CDB009B189B00CA18174B1868C6
:108BB00039690B1CDB005B189B00C3181B6A13622E
:108BC000124B19687A69131CDB009B189B00CB18A9
:108BD0001B6A3B613B69013313D00C4B19683A693E
:108BE000131CDB009B189B00CA18084B18683969D6
:108BF0000B1CDB005B189B00C3185968FB68CB1883
:108C00005360BD4606B080BD202D0020142D0020ED
:108C100080B500AF1120FFF76FFCBD4680BDC04698
:108C200080B500AF1420FFF767FCBD4680BDC0468D
:108C300080B584B000AF7860144B1B68002B1BD04C
:108C4000124B1A687B6899697B68DB69081C191CE0
:108C50009047031CFB60FB68BB60BB68002B0AD01D
:108C6000B96864231A1CFF32094B081C111C1A1C1A
:108C7000FDF7FAFD06E005E07B689A697B68DB6931
:108C8000181C9047BD4604B080BDC046342D00205E
:108C9000C48F020080B584B000AF2B4B1B6801333A
:108CA0004FD000237B60FFF76DFE021C274B1B6833
:108CB000101C191CFFF772FE031CBB60224B1B68C3
:108CC000FB601FE0224B1968FA68131CDB009B183D
:108CD0009B00CB183B603B685A68BB689A4200D93E
:108CE00013E03B685B68BA68D31ABB603B685B689B
:108CF0007A68D3187B603B681B6AFB603B68181C72
:108D0000FFF796FFFB680133DCD1124B1A78124B48
:108D10001B789A420CD1104B1B780133DAB20E4B00
:108D20001A700D4B1B78022B02D10B4B00221A70CC
:108D3000094B1B781A1C094B92007968D150FFF738
:108D40006FFFBD4604B080BD202D0020242D0020E3
:108D5000142D0020302D0020312D0020282D002042
:108D600080B582B000AF7860184B1A78184B1B782A
:108D70009A4223D0154B1B780133DAB2134B1A7089
:108D8000124B1B78022B02D1104B00221A700F4B92
:108D90001B781A1C0F4B9200D2587B681A607B68B4
:108DA0001A680D4B1B68D2180B4B1A600A4B1B68D4
:108DB0001B021A0A084B1A60012303E07B68002299
:108DC0001A600023181CBD4602B080BD302D002063
:108DD000312D0020282D0020242D002080B586B0C4
:108DE00000AF434B1B683B613B1C1733414A127871
:108DF0001A7068E0404B1A683B1C17331B78DB0085
:108E0000D318FB603B1C1633FA6812781A7053E0D3
:108E1000FB6859683B1C16331A78131C5B009B18BF
:108E2000DB00CB18BB603B1C16331A783B1C163397
:108E300001321A70FB689B783A1C163212789A42FB
:108E400003D13B1C163300221A70BB681B78022B1F
:108E500002D0032B2AD02FE0284B1968BB685A6830
:108E6000131CDB009B189B00CB187B607B681B7D71
:108E7000002B08D0BB685B68181CFFF74DFE7B68B1
:108E800000221A7518E017E01C4B1968184B1A6875
:108E9000131CDB009B189B00CB183B603B68002237
:108EA0001A753B681A6A124B1A6000E0C046104BF4
:108EB0001B680133E8D1C046FB685B783A1C163268
:108EC00012789A42A4D13B1C17331B783A1C1732F4
:108ED000591E1170002B8DD1054B1A683B69D31AAE
:108EE0005A1E9341DBB2181CBD4606B080BDC04679
:108EF000202D0020182D00201C2D0020142D0020D6
:108F000080B588B000AFF860B9607A600023FB617B
:108F100042E0254B1968254B1A68131CDB009B188F
:108F20009B00CB18BB61BB695A68FB689A4206D9A3
:108F3000BB695A68FB68D21ABB695A6030E0BB69EA
:108F40005B68FA68D31AFB60BB695B68FA69D3187F
:108F5000FB61BB6900225A60BB6900221A75134B82
:108F60001B687B61BB691A6A104B1A60BB691B697D
:108F7000002B11D0BA68FB69D3181B021A0ABB690F
:108F80009A60BB691A69BB69DA607B681A68BB6959
:108F90001A627B687A691A60044B1B680133B8D186
:108FA000BD4608B080BDC046142D0020202D0020F5
:108FB00080B58AB000AF7860624B1B68BB613B1C18
:108FC0002733614A12781A70A7E0604B1A683B1C7D
:108FD00027331B78DB00D3187B6193E07B68013378
:108FE0000ED07B683B625A4B19683A6A131CDB004F
:108FF0009B189B00CB18FB61FB691B6A7B603EE002
:109000007B6959687B691B781A1C131C5B009B18D1
:10901000DB00CB183B617B691B780133DAB27B69DB
:109020001A707B691A787B699B789A4202D17B69B6
:1090300000221A703B695B683B62454B19683A6ACB
:10904000131CDB009B189B00CB18FB613B691B7852
:10905000012B03D1FB691B7D002B00D052E03B6943
:109060009A68FB699A603B69DA68FB69DA603B6978
:109070001A69FB691A613B695A69FB69DA61FB6924
:109080009A68344B1B68D31A1B021A0A324B9A4255
:109090000ED8FB699A682F4B1B68101C191CFFF730
:1090A0007DFC021CFB69DB68D218FB695A6018E082
:1090B000284B1A68FB699B68101C191CFFF76EFC93
:1090C000031CFB60FB69DA68FB689A4206D9FB69FE
:1090D000DA68FB68D21AFB695A6002E0FB69002279
:1090E0005A60FB6900229A60FB690022DA60FB6922
:1090F00001221A75FB69012252421A623B6A181C4E
:10910000FFF768FC7B68013300D067E77B691A785A
:109110007B695B789A4200D060E73B1C27331B7861
:109120003A1C2732591E1170002B00D04DE7054B19
:109130001A68BB69D31A5A1E9341DBB2181CBD468C
:109140000AB080BD202D0020182D00201C2D0020ED
:10915000142D0020242D0020FEFF7F0090B589B043
:1091600000AF78602A4B1B6801334CD0294B19683B
:10917000274B1A68131CDB009B189B00CB185B68FD
:10918000FB61FFF7FFFB031CBB61234B1B687B618B
:10919000BA697B69101C191CFFF700FC031C033320
:1091A0003B611E4B1B7801225340DBB2002B01D0E8
:1091B000FFF798FBFA693B69934200D2131C7A6966
:1091C000D3187B617B691B021B0A7B617B69181CBE
:1091D000FFF7F2FBFFF7D6FB031CFB60FA68BB69E5
:1091E000101C191CFFF7DAFB031CDC1C7A69BB6935
:1091F000101C191CFFF7D2FB031C9C4202D9FFF77D
:1092000007FD02E001E0FFF791FBBD4609B090BD0C
:10921000202D0020142D0020242D0020382D00208A
:1092200090B587B000AF01235B427B601D4B1B688C
:109230003B611D4B1B68FB603C1C0B343B1C181C2A
:10924000FFF78EFD031C23703C1C1734FFF7C6FD8F
:10925000031C23703B1C0B331B78002B0BD039688D
:109260003A693B1D081C111C1A1CFFF749FE3B1CE8
:10927000173301221A707B68181CFFF799FE031C34
:10928000002B03D03B1C173301221A703B1C1733F1
:109290001B78002B03D0FB68181CFFF75FFFBD464F
:1092A00007B090BD242D0020202D002080B582B075
:1092B00000AF786039603B68DAB27B685A70BD46AF
:1092C00002B080BD80B584B000AF786039607B6843
:1092D0005B780133FB607B689B781A1CFB689A42C1
:1092E00001D10023FB607B681B781A1CFB689A4243
:1092F00001D100230EE03B68FA681A607B68596868
:109300007B685B781A1C131C5B009B18DB00CB1876
:10931000BB60BB68181CBD4604B080BD80B586B07C
:1093200000AFF860B9607A603B601B4B1A68FB685D
:10933000DB00D2183B1C1033101C191CFFF7C2FFB6
:10934000031C7B617B69002B01D1042320E07B6936
:1093500001221A707B69BA685A60FFF713FB021C7E
:109360007B699A607B697A68DA607B693A681A611E
:109370007B693A6A5A61084B1A68FB68DB00D218AD
:109380003B69101C191CFFF791FFFFF749FC0023F4
:10939000181CBD4606B080BD1C2D002080B584B0D1
:1093A00000AF78603960144B1A687B68DB00D21814
:1093B0003B1C0833101C191CFFF784FF031CFB60C7
:1093C000FB68002B01D1042312E0FB6802221A7013
:1093D000FB683A685A60084B1A687B68DB00D21851
:1093E000BB68101C191CFFF761FFFFF719FC002375
:1093F000181CBD4604B080BD1C2D002080B584B073
:1094000000AF7860144B1A687B68DB00D2183B1CF5
:109410000833101C191CFFF755FF031CFB60FB6889
:10942000002B01D1042313E0FB6803221A70FB68B0
:10943000012252425A60084B1A687B68DB00D2183E
:10944000BB68101C191CFFF731FFFFF7E9FB002375
:10945000181CBD4604B080BD1C2D002080B500AF97
:10946000104AA0235B000021D1500E4AA2235B00CA
:109470000021D1500B4AA4235B000021D150094A9E
:10948000A6235B000021D150064A80235B00002107
:10949000D150044A82235B000021D150FFF7FAFB30
:1094A000BD4680BD0010014080B500AFFFF7B8FE9B
:1094B000BD4680BD80B586B000AFF8607B603B1CC8
:1094C0000B3319703B1C0A331A707B68181CFEF7AB
:1094D000D7FF031C01225340DBB2002B01D007232E
:1094E00089E07B68002B01D1072384E0FFF71EFA97
:1094F000434B3A6A1A60434B3A1C0B3212781A708B
:10950000414B7A681A6000237B6116E03E4B196874
:109510007A69131CDB009B189B00CB1800221A7081
:10952000394B19687A69131CDB009B189B00CB1818
:1095300000221A757B6901337B613B1C0B331A785F
:109540007B699A42E2DC3B1C0B331A78131CDB006C
:109550009B189B007A68D3187B602C4B03221A70EF
:109560002B4B7A681A607B6818337B6000237B6121
:1095700020E0274B1A687B69DB00D3183B613B690D
:1095800000221A703B6900225A703B693A1C0A3269
:1095900012789A703B697A685A603B1C0A331A78D1
:1095A000131C5B009B18DB007A68D3187B607B6917
:1095B00001337B617B69022BDBDD164B01225242BA
:1095C0001A60154B00221A70144B00221A701420D6
:1095D000FEF7ACFF14200321FEF7C2FF1420FEF7B4
:1095E0005DFFFB68181CFFF76BF9FFF7CBF9021C56
:1095F0000B4B1A600023181CBD4606B080BDC04648
:10960000342D0020102D0020142D0020182D0020B6
:109610001C2D0020202D0020302D0020312D002079
:10962000242D002080B586B000AFF8607A603B1C26
:109630000B330A1C1A70284B1B68002B01D108231E
:1096400046E07B68002B01D1072341E0FB68002B3B
:1096500001D107233CE000237B6132E01E4B1968F7
:109660007A69131CDB009B189B00CB181B78002B1E
:1096700024D1194B19687A69131CDB009B189B00D5
:10968000CB1801221A70144B19687A69131CDB007D
:109690009B189B00CB183A1C0B3212785A700E4B59
:1096A00019687A69131CDB009B189B00CB187A6839
:1096B0009A617A69FB681A60002309E07B690133CB
:1096C0007B61064B1B781A1C7B699A42C6DC04231B
:1096D000181CBD4606B080BD142D0020102D0020A2
:1096E00080B582B000AFFFF7CDF8031C012B02D08C
:1096F000032B03D005E000237B6005E001237B60A2
:1097000002E002237B60C0467B68181CBD4602B0A5
:1097100080BDC04690B589B002AFF860B9607A608C
:109720001D4B1B68002B01D1082330E01B4B1B781D
:109730001A1CFB689A4202D9BB68042B01D8072384
:1097400025E0154B1968FA68131CDB009B189B0079
:10975000CB181B78012B01D0082318E00E4B196899
:10976000FA68131CDB009B189B00CB185B78012B5D
:1097700001D1BB6800E000237B61FFF7B1FFF9680E
:10978000BA687B697C680094FFF7C8FD031C181C4D
:10979000BD4607B090BDC046142D0020102D0020FE
:1097A00080B582B000AF7860134B1B68002B01D1ED
:1097B00008231DE0114B1B781A1C7B689A4201D8C4
:1097C000072315E00C4B19687A68131CDB009B1803
:1097D0009B00CB181B78012B01D0082308E0FFF772
:1097E0007FFF021C7B68101C191CFFF7D7FD031CB0
:1097F000181CBD4602B080BD142D0020102D002085
:1098000080B500AF074B1B68002B01D1082306E091
:10981000FFF766FF031C181CFFF7F0FD031C181C64
:10982000BD4680BD142D002080B582B000AF7860A9
:10983000FFF7A8F8021C7B681A600023181CBD46BD
:1098400002B080BD80B584B000AFF860B9607A60C6
:10985000FA68BB68101C191CFFF7A0F8021C7B6893
:109860001A600023181CBD4604B080BD70DF70472D
:10987000181CC04671DF7047181CC04672DF704765
:10988000181CC04673DF7047181CC04674DF704751
:10989000181CC04675DF7047181CC04676DF70473D
:1098A000181CC04677DF7047181CC04678DF704729
:1098B000181CC04679DF7047181CC0467ADF704715
:1098C000181CC0467BDF7047181CC0467CDF704701
:1098D000181CC0467DDF7047181CC0467EDF7047ED
:1098E000181CC0467FDF7047181CC04680DF7047D9
:1098F000181CC04681DF7047181CC04682DF7047C5
:10990000181CC04683DF7047181CC04684DF7047B0
:10991000181CC046B0DF7047181CC046B1DF704746
:10992000181CC046B2DF7047181CC04690DF704755
:10993000181CC04691DF7047181CC04692DF704764
:10994000181CC04693DF7047181CC04694DF704750
:10995000181CC04695DF7047181CC04696DF70473C
:10996000181CC04697DF7047181CC04698DF704728
:10997000181CC046A0DF7047181CC046A1DF704706
:10998000181CC046A2DF7047181CC046A3DF7047F2
:10999000181CC046A4DF7047181CC046A5DF7047DE
:1099A000181CC046A6DF7047181CC046A7DF7047CA
:1099B000181CC046A8DF7047181CC046A9DF7047B6
:1099C000181CC046AADF7047181CC04660DF7047ED
:1099D000181CC04661DF7047181CC04662DF704724
:1099E000181CC04663DF7047181CC04664DF704710
:1099F000181CC04665DF7047181CC04666DF7047FC
:109A0000181CC04667DF7047181CC04668DF7047E7
:109A1000181CC04669DF7047181CC04680B582B06C
:109A200000AF021C3960BB1D1A80BB1D1B88DAB257
:109A30003B681A703B680133BA1D1288120A92B251
:109A4000D2B21A700223181CBD4602B080BDC046B7
:109A500080B588B000AFF860B9607A603B1C1C33F9
:109A60007A6812781A703B1C1C331B7802331F2B48
:109A700004DCFB685B7802331F2B01DD0C237DE0E7
:109A80003B1C1C331B789AB23B1C1E331D218A1AC7
:109A90001A803B1C16333A1C1E3212881A803B1C5B
:109AA0001C331B780233BA68D2183B1C1633101CC7
:109AB000191CFFF70FFF031CBB61BB69002B01D012
:109AC000BB695BE0FB681B78022B12D13B1C163391
:109AD0001B883A1C1E3212889A420AD33B1C1D3343
:109AE00009221A703B1C1E333A1C163212881A8047
:109AF0001AE03B1C1D3308221A70FB685B78002BB0
:109B00000CD0FB685B783A1C1E3212889A4205D34F
:109B1000FB685A783B1C1E331A8005E03B1C1E3341
:109B20003A1C163212881A803B1C1C331B783A1CD4
:109B30001C32591C1170BA68D3183A1C1E32128894
:109B4000D2B20132D2B21A703B1C1C331B783A1CC1
:109B50001C32591C1170BA68D3183A1C1D32127885
:109B60001A707B681A783B1C1E331B88DBB2D31833
:109B7000DBB20233DAB27B681A700023181CBD46D0
:109B800008B080BD90B585B000AF786039603B68A3
:109B90001B7804331F2B01DD0C2332E03B1C0A33FE
:109BA000181CFFF787FE031CFB60FB68002B01D02D
:109BB000FB6826E03B681B785A1CD1B23A681170EA
:109BC0007A68D31803221A703B681B785A1CD1B2EA
:109BD0003A6811707A68D31819221A703B681C7899
:109BE0003B1C0A331A883B681B787968CB18101C19
:109BF000191CFFF713FF031CE318DAB23B681A7055
:109C00000023181CBD4605B090BDC04680B584B089
:109C100000AFF8607A603B603B1C0B330A1C1A7083
:109C2000FB685B68002B01D107233AE03B681B7897
:109C30009A1CFB681B88D3181F2B01DD0C2330E016
:109C40003B681B785A1CD1B23A6811707A68D318F5
:109C5000FA681288D2B20132D2B21A703B681B780D
:109C60005A1CD1B23A6811707A68D3183A1C0B3278
:109C700012781A703B681B787A68D118FB685A68AA
:109C8000FB681B88081C111C1A1C07F03FF83B6876
:109C90001A78FB681B88DBB2D318DAB23B681A70FB
:109CA0000023181CBD4604B080BDC04680B584B0FA
:109CB00000AFB9607A603B1C0F33021C1A707B68DE
:109CC0001B7803331F2B01DD0C2320E07B681B78FE
:109CD0005A1CD1B27A681170BA68D31802221A706D
:109CE0007B681B785A1CD1B27A681170BA68D31895
:109CF0000A221A707B681B785A1CD1B27A681170DC
:109D0000BA68D3183A1C0F3212781A700023181C44
:109D1000BD4604B080BDC04680B58AB000AFF860D3
:109D20007B603B1C0B3319703B1C0A331A703B1CC5
:109D3000233300221A703B1C22333A6B12781A70BC
:109D400000237B627EE0FB685A687B6A9B00D31825
:109D50003A1C1432111C1A1C0423081C111C1A1C56
:109D600006F0D4FF3A1C14323B1C1A33101C191C89
:109D70000022FFF73FFE031CFB61FB69002B01D0B3
:109D8000FB697BE03B1C1A331B783A1C0A321278C1
:109D90009A4254D13B1C23331B78002B01D0002363
:109DA00000E002233A1C1B3213703B6B1B781A1C19
:109DB0003B1C1A331B78D2183B1C1B331B78D3185F
:109DC0001F2B01DD0C2359E03B1C23331B780122A0
:109DD0005340DBB2002B15D03B6B1B780133DAB25A
:109DE0003B6B1A703B6B1B785A1CD1B23A6B1170EB
:109DF0007A68D3183A1C0B3212781A703B1C233342
:109E000001221A703B6B1B787A68D318391C143105
:109E10003A1C1A32081C111C1A1CFFF7EBFD031C1C
:109E2000FB61FB69002B01D0FB6927E03B6B1A78D3
:109E30003B1C1A331B78D318DAB23B6B1A707B6A5F
:109E400001337B62FB681B881A1C7B6A9A4200DD27
:109E500079E73B1C23331B78002B0ED03B1C2233AD
:109E60001B787A68D3183A6B11783A1C2232127830
:109E70008A1AD2B2013AD2B21A700023181CBD4617
:109E80000AB080BD80B588B002AFF8607B603B1C33
:109E90000B3319703B1C0A331A70F9683B1C0B33E7
:109EA0001A787B68386A0090081C111C0222FFF7A0
:109EB00033FF031C7B617B69002B01D07B6913E0BE
:109EC000F9683B1C0A331A787B68386A0090081CD2
:109ED000111C1022FFF720FF031C7B617B69002B04
:109EE00001D07B6900E00023181CBD4606B080BD90
:109EF00080B582B000AF78607B681B88052B0AD9DB
:109F00007B681A88C8231B019A4206D97B681A8885
:109F1000164B9A4201D0072323E07B685B88052B10
:109F20000AD97B685A88C8231B019A4206D97B68E4
:109F30005A880E4B9A4201D0072312E07B681A8898
:109F40000A4B9A420CD07B685A88084B9A4207D039
:109F50007B681A887B685B889A4201D9072300E0F6
:109F60000023181CBD4602B080BDC046FFFF0000A4
:109F700090B587B000AFF860B9607A607B681B78F5
:109F800006331F2B01D90C2341E0FB68181CFFF797
:109F9000AFFF031C7B617B69002B01D07B6936E03E
:109FA0007B681B785A1CD1B27A681170BA68D318D2
:109FB00005221A707B681B785A1CD1B27A6811701E
:109FC000BA68D31812221A707B681C78FB681A884A
:109FD0007B681B78B968CB18101C191CFFF71EFD95
:109FE000031CE318DAB27B681A707B681C78FB6884
:109FF0005A887B681B78B968CB18101C191CFFF7AE
:10A000000DFD031CE318DAB27B681A700023181CDC
:10A01000BD4607B090BDC04690B587B000AFF860B0
:10A02000B9607A60FB689B88DAB23B1C1733023256
:10A030001A707B681B789A1C3B1C17331B78D3184B
:10A040001F2B01DD0C2349E07B681B785A1CD1B221
:10A050007A681170BA68D3183A1C17321278013234
:10A06000D2B21A707B681B785A1CD1B27A68117010
:10A07000BA68D318FF221A707B681C78FB681A88AC
:10A080007B681B78B968CB18101C191CFFF7C6FC3D
:10A09000031CE318DAB27B681A70FB689B88002BFC
:10A0A0001BD0FB689B68002B01D1072316E07B685F
:10A0B0001B78BA68D118FB689A68FB689B88081CF3
:10A0C000111C1A1C06F022FE7B681A78FB689B881C
:10A0D000DBB2D318DAB27B681A700023181CBD46B5
:10A0E00007B090BD90B589B000AFF860B9607A60F4
:10A0F000FB681B6B002B01D107236FE03B1C1F3358
:10A1000000221A7061E0FB68196B3B1C1F331A7840
:10A11000131C5B009B189B00CB18BB61BB699B8821
:10A12000DAB23B1C173302321A707B681B785A1C58
:10A13000D1B27A681170BA68D3183A1C1732127803
:10A140000132D2B21A707B681B785A1CD1B27A687D
:10A150001170BA68D31816221A707B681C78BB6914
:10A160001A887B681B78B968CB18101C191CFFF77C
:10A1700055FC031CE318DAB27B681A70BB699B8834
:10A18000002B1BD0BB699B68002B01D1072325E066
:10A190007B681B78BA68D118BB699A68BB699B88D1
:10A1A000081C111C1A1C06F0B1FD7B681A78BB69EB
:10A1B0009B88DBB2D318DAB27B681A703B1C1F3362
:10A1C0001A783B1C1F3301321A70FA683423D35CAF
:10A1D0003A1C1F3212789A4295D30023181CBD46B0
:10A1E00009B090BD80B588B002AFF860B9607A6000
:10A1F00000237B617B6800221A70FB681B78002BB0
:10A200000ED0F968BA687B68081C111C1A1CFFF78D
:10A210001FFC031C7B617B69002B01D07B69B8E0CC
:10A22000FB689B78002B0CD0BA687B68101C191C4B
:10A23000FFF7A8FC031C7B617B69002B01D07B69C5
:10A24000A7E0FB689B88002B0ED0FB68191DBA683D
:10A250007B68081C0121FFF7D9FC031C7B617B692B
:10A26000002B01D07B6994E0FB68DB68002B11D0E8
:10A27000FB68DB681B7859B2BA687B68081C111C44
:10A280001A1CFFF713FD031C7B617B69002B01D0B7
:10A290007B697EE0FB681B8A002B11D0FB681A1CCF
:10A2A0001032BB6879680091101C02210622FFF76A
:10A2B000E9FD031C7B617B69002B01D07B6968E0B1
:10A2C000FB681B8B002B11D0FB681A1C1832BB6873
:10A2D00079680091101C03210722FFF7D3FD031CAE
:10A2E0007B617B69002B01D07B6952E0FB681B8C92
:10A2F000002B11D0FB681A1C2032BB6879680091D2
:10A30000101C14211522FFF7BDFD031C7B617B6926
:10A31000002B01D07B693CE0FB689B6A002B0FD0CF
:10A32000FB68996ABA687B68081C111C1A1CFFF745
:10A330001FFE031C7B617B69002B01D07B6928E039
:10A34000FB68DB6A002B0FD0FB68D96ABA687B68B0
:10A35000081C111C1A1CFFF75FFE031C7B617B6944
:10A36000002B01D07B6914E0FA683423D35C002B06
:10A370000ED0F968BA687B68081C111C1A1CFFF71C
:10A38000B1FE031C7B617B69002B01D07B6900E07F
:10A390007B69181CBD4606B080BDC04680B582B042
:10A3A00000AF78607B689B88002B0AD07B689B6835
:10A3B000002B06D07B689B681B781A1C0423134073
:10A3C00001D1072300E00023181CBD4602B080BD68
:10A3D00080B582B000AF78607B689B88002B01D08D
:10A3E000072300E00023181CBD4602B080BDC04614
:10A3F00080B596B000AF786039603B1C4B330022CB
:10A400001A703B1C4A3300221A707B68002B1FD045
:10A410007B68181CFFF7C2FF031CFB64FB6C002B5E
:10A4200001D0FB6C46E079683A1C28323B1C4B3368
:10A43000081C111C1A1CFFF7D5FE031CFB64FB6CE7
:10A44000002B01D0FB6C35E03B1C28337B6501E021
:10A4500000237B653B68002B1FD03B68181CFFF76F
:10A46000B7FF031CFB64FB6C002B01D0FB6C21E0ED
:10A4700039683A1C08323B1C4A33081C111C1A1C50
:10A48000FFF7B0FE031CFB64FB6C002B01D0FB6CE0
:10A4900010E03B1C08333B6501E000233B653B1C9F
:10A4A0004B3319783B1C4A331B78786D3A6DFFF7B4
:10A4B000E5F9031C181CBD4616B080BD70DF70475F
:10A4C000181CC04671DF7047181CC04672DF704709
:10A4D000181CC04673DF7047181CC04674DF7047F5
:10A4E000181CC04675DF7047181CC04676DF7047E1
:10A4F000181CC04677DF7047181CC04678DF7047CD
:10A50000181CC04679DF7047181CC0467ADF7047B8
:10A51000181CC0467BDF7047181CC0467CDF7047A4
:10A52000181CC0467DDF7047181CC0467EDF704790
:10A53000181CC0467FDF7047181CC04680DF70477C
:10A54000181CC04681DF7047181CC04682DF704768
:10A55000181CC04683DF7047181CC04684DF704754
:10A56000181CC046B0DF7047181CC046B1DF7047EA
:10A57000181CC046B2DF7047181CC04690DF7047F9
:10A58000181CC04691DF7047181CC04692DF704708
:10A59000181CC04693DF7047181CC04694DF7047F4
:10A5A000181CC04695DF7047181CC04696DF7047E0
:10A5B000181CC04697DF7047181CC04698DF7047CC
:10A5C000181CC046A0DF7047181CC046A1DF7047AA
:10A5D000181CC046A2DF7047181CC046A3DF704796
:10A5E000181CC046A4DF7047181CC046A5DF704782
:10A5F000181CC046A6DF7047181CC046A7DF70476E
:10A60000181CC046A8DF7047181CC046A9DF704759
:10A61000181CC046AADF7047181CC04660DF704790
:10A62000181CC04661DF7047181CC04662DF7047C7
:10A63000181CC04663DF7047181CC04664DF7047B3
:10A64000181CC04665DF7047181CC04666DF70479F
:10A65000181CC04667DF7047181CC04668DF70478B
:10A66000181CC04669DF7047181CC04680B582B010
:10A6700000AF78607B681B781A1C7B6801331B78FD
:10A680001B029BB213439BB29BB2181CBD4602B087
:10A6900080BDC04690B585B000AF78603C1C0E34DC
:10A6A0007B68181CFFF7E2FF031C23803B1C0E3362
:10A6B0001A88012313405A1E9341DBB2181CBD4671
:10A6C00005B090BD80B582B000AF78607B685A88D5
:10A6D000084B1B889A4207D37B685A88054B5B88D6
:10A6E0009A4201D8012300E00023181CBD4602B0A5
:10A6F00080BDC046582D002080B586B000AF786080
:10A70000294B1A88294B9A424BD0294B1B7801338D
:10A71000DAB2274B1A70274B1A7B254B1B789A42CB
:10A7200016D3214B1A88244B101C191CFFF7DAFE94
:10A73000031C7B617B69002B09D01E4B9B69002B9E
:10A7400005D01C4B9B697A69101C984729E028E0CA
:10A75000174B00221A70174B1B7C002B13D0124B87
:10A760001B88181C3B21FFF7C1FE031C3B613B69A2
:10A77000002B08D00F4B9B69002B04D00D4B9B691D
:10A780003A69101C98470B4B5B69002B09D03B1CA6
:10A790000C3300221A70074B5B693A1C0C32101CF8
:10A7A0009847BD4606B080BD622D0020FFFF000027
:10A7B000602D00203C2D0020582D002090B585B044
:10A7C00000AF7860214B7A6813CA13C313CA13C34E
:10A7D00012681A601E4B00221A707B681B68002BDF
:10A7E00015D07B681B681B4A111C1A1C0823081C07
:10A7F000111C1A1C06F08AFA164B181CFFF786FE6D
:10A80000031CFB60FB68002B0CD0FB6819E0114BAC
:10A81000181CFFF77FFE031CFB60FB68002B01D0B8
:10A82000FB680EE00C4B012252421A800B4B0022B7
:10A830001A700B4A0B4B101C00211A1CFEF7F2FE7B
:10A84000031C181CBD4605B090BDC0463C2D002021
:10A85000702D0020582D0020622D0020602D00203A
:10A860006C2D0020F9A6010080B500AF044B1B68D9
:10A87000181CFEF795FF031C181CBD4680BDC04682
:10A880006C2D002080B584B000AF284B181CFFF75A
:10A8900019FF031C01225340DBB2002B33D0244BA1
:10A8A0001B78002B0CD0234B5B69002B2AD03B1D5F
:10A8B00000221A701F4B5B693A1D101C98472EE04E
:10A8C0001D4B1B78002B03D11A4B5B68FB6002E029
:10A8D000184B9B68FB60194B1A68FB68101C191C0D
:10A8E0000022FEF717FF031CBB60BB68002B09D0DA
:10A8F000104B9B69002B05D00E4B9B69BA68101C4E
:10A9000098470CE00BE00B4B5B69002B07D03B1C1E
:10A9100001221A70074B5B693A1C101C9847044BC4
:10A9200000221A70BD4604B080BDC046642D0020D0
:10A93000702D00203C2D0020602D00206C2D00206B
:10A9400080B582B000AF78607B689A880B4B1A8024
:10A950000B497A680E23D2180823081C111C1A1CF4
:10A9600006F0D4F9074B00221A70074BDB89002B45
:10A9700001D1FFF787FFBD4602B080BD622D0020E8
:10A98000642D0020602D00203C2D002080B584B077
:10A9900000AF78600E4B012252421A800D4B00220C
:10A9A0001A700D4B1B68181CFEF7FAFE031CFB60A7
:10A9B000FB68002B08D0094B9B69002B04D0074B88
:10A9C0009B69FA68101C9847BD4604B080BDC0461C
:10A9D000622D0020602D00206C2D00203C2D0020D9
:10A9E00080B584B000AF78607B680633FB60FB689D
:10A9F0001A88144BDB899A4221D1FB681B8B022BEE
:10AA00001DD1FB681A33181CFFF744FE031C002BF2
:10AA100002D0FFF737FF12E00B4B1B68181CFEF744
:10AA2000BFFE031CBB60BB68002B08D0054B9B69B5
:10AA3000002B04D0034B9B69BA68101C9847BD4695
:10AA400004B080BD3C2D00206C2D002080B582B06C
:10AA500000AF786007497A680623D2180823081CDB
:10AA6000111C1A1C06F052F9FFF70CFFBD4602B08C
:10AA700080BDC046642D002080B582B000AF7860F4
:10AA80007B681B88112B0DD002DC102B05D018E041
:10AA9000122B11D0502B0AD013E07B68181CFFF743
:10AAA0004FFF0EE07B68181CFFF770FF09E07B6822
:10AAB000181CFFF795FF04E07B68181CFFF7C6FF22
:10AAC000C046BD4602B080BD80B584B000AF78609E
:10AAD000204A7B68111C1A1C0823081C111C1A1C14
:10AAE00006F014F91B4B181CFFF710FD031CFB604C
:10AAF000FB68002B29D1184B181CFFF7E3FD031C42
:10AB000001225340DBB2002B0FD0144B01221A70EC
:10AB1000134B1A880F4B101C191CFFF7E3FC031C86
:10AB2000FB60104B01221A700FE00F4B5B69002B8A
:10AB300009D03B1C083301221A700B4B5B693A1C8D
:10AB40000832101C98470023FB60FB68181CBD46A8
:10AB500004B080BD582D0020642D0020702D0020F1
:10AB6000622D0020602D00203C2D002080B582B099
:10AB700000AF786039603B681B7B002B07D03B68D7
:10AB80005A687B681A607B6800221A7106E03B688D
:10AB90001A687B681A607B6801221A71BD4602B090
:10ABA00080BDC04680B582B000AF786039607B68F8
:10ABB0001B79002B18D03B685A687B681B68D21A37
:10ABC0003B689B689A4207D97B681A683B689B6818
:10ABD000D2187B681A601FE03B685A687B681A606D
:10ABE0007B6800221A7117E07B681A683B681B6853
:10ABF000D21A3B689B689A4207D97B681A683B68FF
:10AC00009B68D21A7B681A6006E03B681A687B680A
:10AC10001A607B6801221A717B681B68181CBD468C
:10AC200002B080BD23DF7047181CC04624DF704788
:10AC3000181CC04625DF7047181CC04626DF704729
:10AC4000181CC04627DF7047181CC04628DF704715
:10AC5000181CC04629DF7047181CC0462ADF704701
:10AC6000181CC0462BDF7047181CC0462CDF7047ED
:10AC7000181CC0462DDF7047181CC0462EDF7047D9
:10AC8000181CC0462FDF7047181CC04630DF7047C5
:10AC9000181CC04631DF7047181CC04632DF7047B1
:10ACA000181CC04635DF7047181CC04636DF704799
:10ACB000181CC04633DF7047181CC04634DF70478D
:10ACC000181CC04637DF7047181CC04638DF704775
:10ACD000181CC04639DF7047181CC0463ADF704761
:10ACE000181CC0463BDF7047181CC0463CDF70474D
:10ACF000181CC0463DDF7047181CC0463EDF704739
:10AD0000181CC0463FDF7047181CC04641DF704723
:10AD1000181CC04642DF7047181CC04643DF70470E
:10AD2000181CC04640DF7047181CC04644DF7047FF
:10AD3000181CC04645DF7047181CC04646DF7047E8
:10AD4000181CC04647DF7047181CC04648DF7047D4
:10AD5000181CC04649DF7047181CC0464ADF7047C0
:10AD6000181CC0464BDF7047181CC0464CDF7047AC
:10AD7000181CC0464DDF7047181CC04651DF704795
:10AD8000181CC04652DF7047181CC04621DF7047B0
:10AD9000181CC04620DF7047181CC04622DF7047D1
:10ADA000181CC0464EDF7047181CC0464FDF704766
:10ADB000181CC04650DF7047181CC04680B582B0D2
:10ADC00000AF78607A68032313405A425341DBB2E4
:10ADD000181CBD4602B080BD80B582B000AF78605F
:10ADE0001D497A68131C9B009B189B00CB180022FE
:10ADF0001A7119497A68131C9B009B189B00CB1889
:10AE00000022DA8014497A68131C9B009B189B006F
:10AE1000CB18083301225A600F497A68131C9B0033
:10AE20009B189B00CB18083300229A600A497A6865
:10AE3000131C9B009B189B00CB18103300225A60F8
:10AE400005497A68131C9B009B189B00CB180022B5
:10AE50001A81BD4602B080BD742D002080B582B03D
:10AE600000AF0F4B00221A800E4B00221A700E4BBF
:10AE700000221A700C4B00225A700B4B00229A7061
:10AE800000237B6006E07B68181CFFF7A5FF7B684A
:10AE900001337B607B68092BF5D9BD4602B080BDCC
:10AEA000482E00204B2E0020742D002080B586B047
:10AEB00000AFB9607A601A1C3B1C0F33011C19707B
:10AEC0003B1C0C331A803B1C133300221A703D4B81
:10AED0005B780A2B6ED03B4B19783A4B5A783B1C67
:10AEE00013338A181A703B1C13331B78092B06D9AD
:10AEF0003B1C13333A1C133212780A3A1A703B1C6B
:10AF000013331A782F49131C9B009B189B003A1C83
:10AF10000F32CB1812781A713B1C13331A78294957
:10AF2000131C9B009B189B00CB1810337A685A6047
:10AF30003B1C13331A7823480821131C9B009B18D1
:10AF40009B00C3185B18BA68043303CA03C33B1CD5
:10AF500013331A781B49131C9B009B189B003A1C47
:10AF60000C32CB181288DA803B1C13331A7815493F
:10AF7000131C9B009B189B003A1C2032CB18128894
:10AF80001A8100237B610F4B9B7801225340DBB277
:10AF9000002B08D000F0DCFA031C7B617B69112BCD
:10AFA00001D100237B61074B5B780133DAB2054B9B
:10AFB0005A7001E004237B617B69181CBD4606B012
:10AFC00080BDC046742D002080B582B000AF002344
:10AFD0007B600A4B5B78002B0BD000F0B9FA031CA6
:10AFE0007B607B68002B04D07B68112B01D1002390
:10AFF0007B607B68181CBD4602B080BD742D0020AC
:10B00000B0B586B002AF7860254B1B781A1C391C8E
:10B010000F312348131C9B009B189B00C3181B79FE
:10B020000B701F4B1B781A1C1D49131C9B009B188F
:10B030009B00CB1808335A681A4B1201D358BB60D7
:10B04000174B1B781A1C131C9B009B189B001A1C87
:10B050000832134BD318191D114B1B781A1C1048BA
:10B06000131C9B009B189B00C31810335D680C4B8E
:10B070001B781A1C0A48131C9B009B189B00C318C2
:10B08000DB88181C3B1C0F331A787B680090BC6867
:10B09000081C111C1A1C2B1CA047BD4604B0B0BDD7
:10B0A000742D00204C2E002080B586B000AF786053
:10B0B00000237B616C4B9B78002B00D1D1E06A4B65
:10B0C00000229A70694B1B78082B16D17B68022BE3
:10B0D00003D1664B00221A7002E0654B00221A7001
:10B0E000FFF772FF031C7B617B69002B04D07B6937
:10B0F000181CFFF785FFB4E0B3E07B68022B03D098
:10B10000032B00D1A9E0ACE0574B1B781A1C131C91
:10B110009B009B189B00544A9B1804333B61554B82
:10B120001B8801339AB2534B1A803B691B78022B60
:10B1300008D1504B1B889A023B695B889A4201DB1D
:10B14000012200E000223B1C0F331A701978012203
:10B150000A401A703B691B78052B05D1434B1B78BD
:10B16000072B01D1012200E000223B1C0E331A7094
:10B17000197801220A401A703B691B78042B05D10B
:10B180003A4B1B78072B01D1012200E000223B1C27
:10B190000D331A70197801220A401A703B691B7826
:10B1A000042B0CD1334B1B889A023B695B889A4273
:10B1B00005DB2E4B1B78002B01D1012200E0002281
:10B1C0003B1C0C331A70197801220A401A703B1C80
:10B1D0000E331B78002B0ED13B1C0D331B78002B3C
:10B1E00009D13B1C0C331B78002B04D13B1C0F33C3
:10B1F0001B78002B24D01D4B00221A707B69181C71
:10B20000FFF7FEFE184B1B78181CFFF7E5FD194BE6
:10B2100000221A80144B5B78013BDAB2124B5A7051
:10B22000114B1B780133DAB20F4B1A700E4B1B789F
:10B23000092B05D90C4B1B780A3BDAB20A4B1A7062
:10B24000FFF7C2FE031C7B617B69002B04D07B6986
:10B25000181CFFF7D5FE04E003E00D20FFF7D0FE39
:10B26000C046BD4606B080BD742D00204B2E002088
:10B270004A2E0020482E002090B587B000AFF8601D
:10B28000B9607A603B6003237B61AE4B1B78002B77
:10B290000CD17B68002B06D13B68002B03D1A94B56
:10B2A00002221A7002E0A74B01221A70A54B1B78EC
:10B2B000062B00D93FE19A00A34BD3181B689F4689
:10B2C000A24B5B6901330CD0A04B5A6980235B050C
:10B2D0001B699BB2101C191C05F0C0F9031C013B33
:10B2E00003E080235B055B69013B80225205126904
:10B2F00092B25343191C80235B051B699BB2BA6849
:10B3000053431A1C80235B051B699BB29B089BB2AD
:10B31000081C111C1A1CFFF739FD031C7B617B699B
:10B32000002B03D1874B02221A7005E104E1BB68B0
:10B33000181CFFF72FFD031C7B617B69002B19D1C3
:10B340007B68002B12D13B68002B0BD1FB681B786C
:10B35000042B03D17B4B07221A700BE0794B05229B
:10B360001A7007E0774B04221A70E5E0754B032250
:10B370001A70E1E0E0E080235B051B699BB2BA68CC
:10B3800053431C1C714B5B6901330CD06F4B5A69E2
:10B3900080235B051B699BB2101C191C05F05EF92C
:10B3A000031C013B03E080235B055B69013B8022BA
:10B3B0005205126992B253431A1C7B68201C111C5F
:10B3C0001A1CFFF7E3FC031C7B617B69002B12D185
:10B3D0003B68002B0BD1FB681B78042B03D1594B26
:10B3E00006221A7007E0574B05221A70A4E0554B4D
:10B3F00004221A70A0E09FE080235B051B699BB2CA
:10B40000BA685A437B689B00D218FB685B88D318E4
:10B410001C1C4E4B5B6901330CD04C4B5A6980238A
:10B420005B051B699BB2101C191C05F017F9031C66
:10B43000013B03E080235B055B69013B80225205F1
:10B44000126992B25A437B689B00D218FB685B88F2
:10B45000D3181A1C3B68201C111C1A1CFFF796FC01
:10B46000031C7B617B69002B0BD1FB681B78042BD1
:10B4700003D1344B06221A7003E0324B05221A70B6
:10B480005AE059E080235B051B699BB2BA685A43B6
:10B490007B689B00D318191CFB681A69FB685B88E2
:10B4A0009B089BB2081C111C1A1CFFF76FFC031CA5
:10B4B0007B617B69002B0DD17B68002B06D13B683B
:10B4C000002B03D11F4B07221A7003E01D4B0622ED
:10B4D0001A7031E030E01D4B5B6901330CD01B4B1F
:10B4E0005A6980235B051B699BB2101C191C05F06F
:10B4F000B5F8031C013B03E080235B055B69013B5E
:10B5000080225205126992B25A4380235B051B695F
:10B510009BB2101C191C05F0A1F8031C181CFFF7A6
:10B5200039FC031C7B617B69002B03D1054B07228F
:10B530001A7001E000E0C0467B69181CBD4607B0E8
:10B5400090BDC0464B2E0020F88F02000010001066
:10B5500080B58EB000AF0F237B637D4B1B781A1C28
:10B56000131C9B009B189B00794A9B1804333B6378
:10B570003B6BDB68FB623B6B1B78042B3AD0052BE3
:10B5800000D1A6E0022B00D0D6E03B6B1B69BB626A
:10B59000704B1B889B027B623B6B5B881A1C7B6A2F
:10B5A000D31A3B62BA6A7B6AD318BB623B6B9B8837
:10B5B0001A1C7B6AD318FA6AD318FB623A6A664B84
:10B5C0009A420BD8F96A3B6A9B08BA6A081C111C9C
:10B5D0001A1CFFF7DBFB031C7B63ADE0F96ABA6A58
:10B5E00080235B00081C111C1A1CFFF7CFFB031CF7
:10B5F0007B63A1E03B6B9A683B1C1E3357491201E9
:10B600008A18083212881A803B6B9A683B1C1C33DC
:10B61000524912018A18083252881A803B6B9B6883
:10B620004E4A1B01D3185B68BB61BA69FB6A9A4238
:10B630000AD13B1C1E331B883A1C1C3212885A4309
:10B640003B6B5B889A4203D03B6B9B68022B14D107
:10B6500080235B051B699BB2F86A191C04F0FEFF8E
:10B66000031C1A1C3B4B1B88D3187B617B69181C7D
:10B67000FFF790FB031C7B635EE080235B051B6987
:10B680009BB2F86A191C04F0E9FF031C7B6180235C
:10B690005B051B699BB27A695343FA6AD31A9B080C
:10B6A0003B617B695A1C80235B051B699BB25A4333
:10B6B0003B6B5B88191CFB6ACB18D31A9B08FB6099
:10B6C000386B79693A69FB68FFF7D6FD031C7B6329
:10B6D00032E080235B051B699BB2F86A191C04F0F9
:10B6E000BDFF031CBB603B6B9B881A1CFB6AD21816
:10B6F00080235B051B699BB2B9684B43D31A9B0837
:10B700007B60BB685A1C80235B051B699BB25A4354
:10B710003B6B9B88191CFB6AC9183B6B5B88CB1879
:10B72000D31A9B083B60386BB9687A683B68FFF7AF
:10B73000A3FD031C7B63C0467B6B002B02D1044B33
:10B7400001229A707B6B181CBD460EB080BDC046AE
:10B75000742D0020482E0020FF0300004C2E0020F6
:10B7600080B582B000AFFFF779FB3F4B00221A8013
:10B770003E4B5B6901330CD03C4B5A6980235B051F
:10B780001B699BB2101C191C04F068FF031C023BD0
:10B7900003E080235B055B69023B8022520512694E
:10B7A00092B25A43324B1A60324B00221A80002365
:10B7B0007B601CE0304B7A6812010021D1502E4A88
:10B7C0007B681B01D318083300221A802A4A7B6841
:10B7D0001B01D318083300229A80274A7B681B017B
:10B7E000D318083300225A807B6801337B607B6862
:10B7F000002BDFD0214B08221A701C4B5B690133F0
:10B800000CD01A4B5A6980235B051B699BB2101C34
:10B81000191C04F023FF031C013B03E080235B059C
:10B820005B69013B80225205126992B25A43802320
:10B830005B051B699BB2101C191C04F00FFF031C55
:10B84000181CFFF7A7FA031C3B603B68002B05D1CF
:10B850000B4B01229A700B4B01221A703B68181C8B
:10B86000BD4602B080BDC046402E00200010001032
:10B87000442E0020482E00204C2E00204B2E00206D
:10B88000742D00204A2E002090B585B000AF78605E
:10B890003960784B1B7801225340DBB2002B01D07A
:10B8A0000823E2E07B68002B01D10E23DDE03B683A
:10B8B000002B01D10E23D8E07B681B68002B01D13F
:10B8C0000E23D2E07B689A8880235B051B699BB2BC
:10B8D0009A4203D87B689B880F2B01D80723C4E0CA
:10B8E0007B68DB88002B3DD07B68DB887A68928898
:10B8F00053431A1C604B1B68D418604B5B690133BF
:10B900000CD05E4B5A6980235B051B699BB2101CEF
:10B91000191C04F0A3FE031C013B03E080235B051C
:10B920005B69013B80225205126992B253439C42EB
:10B9300018D87B68DB887A6892885A4380235B0535
:10B940001B699BB29A420FDD80235B051B699AB28B
:10B950007B689B88101C191C04F0C4FE0B1C9BB256
:10B96000002B01D0072380E07B689A8803231340D3
:10B970009BB2002B01D0072377E0414B1B88012BA2
:10B9800001D1042371E03E4B1B881A1C3B681A60EE
:10B99000394B1A683B685A60394B1B88181C3B6846
:10B9A0005A6838490301CB185A60354B1B881A1C5A
:10B9B0007B681968334B1201D150314B1B887A6870
:10B9C000928830491B01CB1808331A802C4B1B88F6
:10B9D0007A68D2882B491B01CB1808335A803B1C4C
:10B9E0000E3300221A807B689B887A68D288534382
:10B9F000BB603B1C0E331A883B1C0E3301321A808D
:10BA000080235B051B699BB21A1CBB689A4207D254
:10BA100080235B051B699BB2BA68D31ABB6001E047
:10BA20000023BB6080235B051B699BB21A1C124B71
:10BA30001B68D218104B1A6080235B051B699BB2F0
:10BA40001A1CBB689A42D4D90D4B1B880D4A1B01A6
:10BA5000D31808333A1C0E3212889A80084B1B8880
:10BA600001339AB2064B1A800023181CBD4605B05C
:10BA700090BDC0464A2E0020442E00200010001029
:10BA8000402E00204C2E002090B587B000AFF8600B
:10BA90007A603B1C0A330A1C1A80314B1B78012246
:10BAA0005340DBB2002B01D0082354E0FB68002B8D
:10BAB00001D10E234FE07B68002B01D10E234AE019
:10BAC000FB681B68002B06D1FB681A68254B120126
:10BAD000D358002B01D107233DE03B1C1033FA68FB
